:0400000026EF00F0F7
:100008005382FACF3EF0FBCF3FF0F2AC0EEF00F098
:1000180010EF00F020EF00F09DA015EF00F017EFB3
:1000280000F020EF00F09EA01CEF00F01EEF00F0A3
:1000380020EF00F0A1EC0AF03FC0FBFF3EC0FAFF42
:08004800539211005BEF0AF076
:1010000000000000000000000000000000000000E0
:1010100000000000000000000000000000000000D0
:101020000000402700010000693263206469727487
:1010300079206F6E20666972737420636865636BD4
:031040000A0000A3
:101044008B808B941A0E426EF80EE82EFED7422E39
:10105400FCD700D08B841A0E426EF80EE82EFED711
:10106400422EFCD700D08B909F0E2CEC0BF0A50EDB
:101074002CEC0BF0456EA50E2CEC0BF0446E8B8023
:1010840039EC0BF0466E1F0E4518D8A44CEF08F04F
:101094004EEF08F0FDEF08F0D4EF08F0020E256ED5
:1010A400040E296E000E286E46A05BEF08F05DEF7B
:1010B40008F065EF08F0000E2A6E010E276E000E90
:1010C400266EFAEF08F0090E2A6E010E276E080E3E
:1010D400266EFAEF08F0040E256E080E296E000E37
:1010E400286E46A078EF08F07AEF08F065EF08F074
:1010F4005DEF08F0080E256E100E296E000E286EA6
:1011040046A087EF08F089EF08F065EF08F05DEF7F
:1011140008F0100E256E100E296E000E286E46A0E3
:1011240096EF08F098EF08F0A0EF08F0000E2A6E92
:10113400020E276E000E266EFAEF08F00A0E2A6ED3
:10114400020E276E100E266EFAEF08F0200E256EA2
:10115400200E296E000E286E46A0B3EF08F0B5EFFE
:1011640008F0A0EF08F098EF08F0400E256E200E6E
:10117400296E000E286E46A0C2EF08F0C4EF08F0F6
:10118400CCEF08F0000E2A6E040E276E000E266EB9
:10119400FAEF08F00B0E2A6E040E276E200E266E50
:1011A400FAEF08F044501F0B426E436A4350000AA2
:1011B400D8B4DFEF08F0FAEF08F04250030AD8B4CD
:1011C40050EF08F0070AD8B46DEF08F0010AD8B45C
:1011D4007CEF08F0030AD8B48BEF08F0010AD8B406
:1011E400A8EF08F00F0AD8B4B7EF08F0FAEF08F048
:1011F400000EFEEF08F0010E120020EE6CF010EE6F
:1012040077F00A0EDBCFE3FFE806FCE221EE00F004
:10121400FD0EDE6AE806FDE2000E506E000E4F6E13
:101224001FEC0BF08B80AA0E406E160E416E62EC22
:101234000BF0D09C000E6DEC09F0F28EF28CFCECFD
:101244000AF022EC08F0506E000E466E010E476E56
:10125400000E496E190E486E000E4B6E000E4A6E5B
:10126400C5EC09F0506E0FEC0BF0506E000E466E9C
:10127400010E476E000E496E190E486E000E4B6E3D
:10128400000E4A6EC5EC09F0506E770E466E000EE5
:10129400476E000E496E090E486E000E4B6E000E2E
:1012A4004A6E04EC0AF0506E000E466E010E476E54
:1012B400000E496E190E486E000E4B6E000E4A6EFB
:1012C400C5EC09F0506E22EC08F0506E00F069EFA6
:1012D40009F026EF00F0416EC6BA73EF09F075EF1E
:1012E40009F0C4EF09F04150040D010EF326000E7D
:1012F400F422210EF324F66E100EF420F76EF86A31
:10130400000EF8220800F5CFC7FF4150040D210E4E
:10131400F324F66E100EF420F76EF86A000EF8222D
:101324000800F5CFC6FF000EC56E4150040D020E35
:10133400F326000EF422210EF324F66E100EF42090
:10134400F76EF86A000EF8220800F5CFC8FF415086
:10135400040D030EF326000EF422210EF324F66E80
:10136400100EF420F76EF86A000EF8220800F5CF8C
:1013740040F040464046404694504018F70B401811
:10138400946EC68A12002AC04CF04AC04DF04BC07D
:101394004EF04C2AD1EF09F0D8904D364E364C2EF3
:1013A400CEEF09F04DC04AF04EC04BF04850265CD9
:1013B40049502758D8B0E1EF09F0E3EF09F0E7EF1F
:1013C40009F026C048F027C049F08B900B0E2CEC96
:1013D4000BF04A502CEC0BF04B502CEC0BF04A5019
:1013E4002CEC0BF0000E2CEC0BF046C040F047C088
:1013F40041F048C042F049C043F031EC0AF08B8020
:10140400000E12002AC04CF04AC04DF04BC04EF002
:101414004C2A10EF0AF0D8904D364E364C2E0DEF74
:101424000AF04DC04AF04EC04BF08B90820E2CEC6B
:101434000BF04A502CEC0BF04B502CEC0BF04A50B8
:101444002CEC0BF046C040F047C041F048C042F0DD
:1014540049C043F031EC0AF08B80000E120040C00A
:1014640044F041C045F04DEF0AF044C0D9FF45C0F7
:10147400DAFFDF50C96E9EA642EF0AF044EF0AF08D
:101484003DEF0AF09E9644C0D9FF45C0DAFFC9CFAC
:10149400DFFF444A452A4206D8A04306422806E113
:1014A4004328D8A458EF0AF05AEF0AF037EF0AF0AD
:1014B4001200B80EF66E160EF76E000EF86E00EE01
:1014C4006CF010EE0BF00900F5CFEEFFE550E150A3
:1014D400FAE102EE00F0FE0EEE6AE806FDE100EE2F
:1014E40060F00C0EEE6AE806FDE100EE01F03B0E42
:1014F400EE6AE806FDE1539053920001FFEF08F015
:10150400080EB86E900EAB6E240EAC6E220EAF6E4B
:10151400000EB06E000E406E000E416E6CEC0BF0CF
:10152400000E406E000E416E67EC0BF0000E406E34
:10153400000E416E71EC0BF0000E3B6E12009E909B
:1015440035C03CF036C03DF0E8EC0AF05150521082
:10155400D8B4AFEF0AF0B1EF0AF0BDEF0AF002D849
:10156400BDEF0AF00500FA6E5150FD6E5250FE6E4A
:10157400FF6AFA5012001200000ECC6EFC0ECF6E01
:10158400180ECE6ECECF35F0CFCF36F09E909D8024
:10159400F00E406E160E416E62EC0BF0270ECD6E0F
:1015A4001200000E896E000E8A6E010E8B6E926818
:1015B4009368BA0E946E200E0F013A6F3F0E396F86
:1015C4002F0E386F000E616EF18E1200CDA4EDEF78
:1015D4000AF0EFEF0AF0F7EF0AF0CD903D50CF6E2E
:1015E4003CC0CEFFCD80FBEF0AF03D50CF6E3CC037
:1015F400CEFF1200F29E2BC044F02CC045F02DC04B
:1016040046F02EC047F0F28E44C040F045C041F091
:1016140046C042F047C043F012008B90C70E2CEC3A
:101624000BF0940E2CEC0BF0800E2CEC0BF09A0EBD
:101634002CEC0BF08B80000E120076EC0BF044ECDB
:101644000BF0D3EC0AF04EEC0BF0BEEC0AF082EC9B
:101654000AF01200406E40C0C9FF9EA634EF0BF0A2
:1016640036EF0BF02FEF0BF09E96C95012008B90C3
:10167400D70E2CEC0BF0000E2CEC0BF0416E8B8093
:1016840041501200000EC76E080EC66E000EC56EE5
:10169400270EC86EC69A1200700ED36E040ED26E58
:1016A400000E9B6E1200010E2B26000E2C222D2202
:0F16B4002E221200000102030405060708090A8E
:1016C40040C051F041C052F0120040C084F041C00B
:1016D40085F0120040C086F041C087F0120040C07F
:0E16E40082F041C083F01200D09E120012006E
:020000040020DA
:08000000FFFFFFFFFFFFFFFF00
:020000040030CA
:0E000000FF281F3CFFBF85FF0FC00FE00F4021
:00000001FF
