:0400000026EF00F0F7
:100008005B82FACF03F0FBCF04F0F2AC0EEF00F006
:1000180010EF00F020EF00F09DA015EF00F017EFB3
:1000280000F020EF00F09EA01CEF00F01EEF00F0A3
:1000380020EF00F06CEC0CF004C0FBFF03C0FAFFEB
:100048005B92110051EF0BF037C0D9FF38C0DAFFCF
:10005800DECFF6FFDDCFF7FFF86A0800F550250A76
:10006800D8A439EF00F03BEF00F0AAEF01F037C059
:10007800D9FF38C0DAFFDE2A000EDD22000E0001AB
:100088009F6F000E9E6F9EC0A6F0A069A16937C041
:10009800D9FF38C0DAFFDECF44F0DDCF45F044C0E9
:1000A800F6FF45C0F7FFF86A0800F5CF43F069EF9F
:1000B80000F0444A452A86EF00F0690E436E86EF49
:1000C80000F0000E436E86EF00F043503B6E3C6A32
:1000D8003C50000AD8B473EF00F065EF00F03B50D5
:1000E800580AD8B461EF00F03C0AD8B461EF00F0C8
:1000F8000D0AD8B461EF00F0050AD8B45DEF00F03E
:1001080065EF00F044C0F6FF45C0F7FFF86A080045
:10011800F550640AD8B493EF00F095EF00F0DBEFE8
:1001280000F044C0F6FF45C0F7FFF86A0800F55034
:10013800690AD8A4A2EF00F0A4EF00F00EEF01F0D6
:10014800DBEF00F039C0D9FF3AC0DAFFDFCF3BF070
:10015800020EDE26DFCF3CF0000EDD223BC0D9FFC9
:100168003CC0DAFFDECF3FF0DDCF40F0000E40BEEE
:10017800FF0E416E426EF0EF00F039C0D9FF3AC071
:10018800DAFFDFCF3BF0040EDE26DFCF3CF0000EB7
:10019800DD223BC0D9FF3CC0DAFFDECF3FF0DECF27
:1001A80040F0DECF41F0DECF42F0F0EF00F04350F8
:1001B8003B6E3C6A3C50000AD8B4E5EF00F0F0EF23
:1001C80000F03B50690AD8B4A6EF00F0050AD8B48D
:1001D800C1EF00F0F0EF00F0010E44243B6E000E7A
:1001E80045203C6E37C0D9FF38C0DAFF3BC0DEFF80
:1001F8003CC0DDFF35C022F036C023F03FC024F0FC
:1002080040C025F041C026F042C027F010EC03F0B2
:10021800BFEF01F044C0F6FF45C0F7FFF86A0800D9
:10022800F550580AD8A41BEF01F01DEF01F0A1EF1B
:1002380001F055EF01F039C0D9FF3AC0DAFFDFCF3E
:100248003BF0020EDE26DFCF3CF0000EDD223BC085
:10025800D9FF3CC0DAFFDECF3DF0DDCF3EF03DC038
:100268003FF03EC040F0416A426A6AEF01F039C08F
:10027800D9FF3AC0DAFFDFCF3BF0040EDE26DFCF2E
:100288003CF0000EDD223BC0D9FF3CC0DAFFDECFD8
:100298003FF0DECF40F0DECF41F0DECF42F06AEF34
:1002A80001F043503B6E3C6A3C50000AD8B45FEF03
:1002B80001F06AEF01F03B50690AD8B41FEF01F072
:1002C800050AD8B43BEF01F06AEF01F0010E4424AF
:1002D8003B6E000E45203C6E37C0D9FF38C0DAFFB0
:1002E8003BC0DEFF3CC0DDFF8AEF01F035C022F0E5
:1002F80036C023F03FC024F040C025F041C026F0AE
:1003080042C027F0CCEC04F0BFEF01F044C0F6FF88
:1003180045C0F7FFF86A0800F5503B6E3C6A3C5050
:10032800000AD8B49AEF01F0A1EF01F03B50580A47
:10033800D8B47AEF01F0A1EF01F037C0D9FF38C087
:10034800DAFFDE2A000EDD22BFEF01F037C0D9FF49
:1003580038C0DAFFDECFF6FFDDCFF7FFF86A080016
:10036800F550076E086A35C009F036C00AF057EC38
:1003780008F0A1EF01F0120020EED8F010EEABF07B
:100388000A0EDBCFE3FFE806FCE221EE00F0FD0EEB
:10039800DE6AE806FDE2000E0001B66F000EB76FD8
:1003A800000EB86F000EB96FEFEC0CF08A8A4A0E97
:1003B800056E1A0E066E3FEC0DF0D09CF28EF28C94
:1003C800000E0001CC6F000ECD6F000ECE6F000E38
:1003D800CF6F000ED06F000ED16F000ED26F000EDF
:1003E800D36F000EBC6F000EBD6F000EBE6F000E07
:1003F800BF6F000EC06F000EC16F000EC26F000EFF
:10040800C36F000ED46F000ED56F000ED66F000EAE
:10041800D76F000EC46F000EC56F000EC66F000EBA
:10042800C76F000EC86F000EC96F000ECA6F000EAE
:10043800CB6FDCEC0CF0ED0E4E6EFF0E4F6EC9EC80
:100448000CF057EC0DF0800E126E1A0E136E060E9D
:10045800146E000E156E21EC0BF021EC09F005C0AE
:10046800BAF006C0BBF0C00E4E6EFF0E4F6EBAC09B
:1004780050F0BBC051F0C9EC0CF0DE0EBCEC08F03B
:100488000D500E10D8A44BEF02F04DEF02F055EFCF
:1004980002F0CB0E4E6EFE0E4F6EC9EC0CF05BEF09
:1004A80002F0A20E4E6EFE0E4F6EC9EC0CF04C0E12
:1004B8004E6EFE0E4F6EC9EC0CF0CC0E1E6E000E8A
:1004C8001F6E03EC07F0160E4E6EFF0E4F6ECCC07B
:1004D80050F0CDC051F0CEC052F0CFC053F0C9ECAF
:1004E8000CF0780E4E6EFE0E4F6EC9EC0CF0890EB5
:1004F8000001BC6F470EBD6F560EBE6F120EBF6F68
:10050800BCC01CF0BDC01DF0BEC01EF0BFC01FF0B7
:10051800C9EC0BF0550E4E6EFF0E4F6EC9EC0CF089
:10052800D00E1E6E000E1F6E03EC07F0160E4E6EF8
:10053800FF0E4F6ED0C050F0D1C051F0D2C052F073
:10054800D3C053F0C9EC0CF0F40E4E6EFE0E4F6E95
:10055800C9EC0CF0890E0001C06F470EC16F560E32
:10056800C26F120EC36FC0C01CF0C1C01DF0C2C064
:100578001EF0C3C01FF0A5EC0BF0A80E4E6EFF0EC8
:100588004F6EC9EC0CF0D40E1E6E000E1F6E8CEC74
:1005980006F0380E4E6EFF0E4F6ED4C050F0D5C028
:1005A80051F0D6C052F0D7C053F0C9EC0CF0890E08
:1005B8000001C46F470EC56F560EC66F120EC76F87
:1005C800D80E4E6EFF0E4F6EC9EC0CF0C4C005F08D
:1005D800C5C006F0C6C007F0C7C008F01CEC0DF097
:1005E80005C0C8F006C0C9F007C0CAF008C0CBF003
:1005F800720E4E6EFF0E4F6EC8C050F0C9C051F05B
:10060800CAC052F0CBC053F0C9EC0CF05CEC0DF052
:100618000CEF03F026EF00F027BE15EF03F018EFFC
:1006280003F0010E19EF03F0000E2E6E2E50D8B411
:1006380020EF03F022EF03F02AEF03F0271E261E17
:10064800251E246C000E2522262227220001A1BF88
:1006580032EF03F030EF03F038EF03F0000E2B6EAB
:10066800010E2A6E3CEF03F0A0C02AF0A1C02BF0C7
:100678009EC02CF09FC02DF02E50D8B446EF03F04A
:1006880048EF03F05FEF03F02C06D8A02D062E509C
:10069800D8A451EF03F053EF03F059EF03F0000E25
:1006A800296E2B0E286E5DEF03F0000E296E2D0EBD
:1006B800286E28C02EF0000E306E1F0E2F6E000E12
:1006C80002011F6FACEF03F02F06D8A03006000E12
:1006D8002F24D96E020E3020DA6E24C005F025C012
:1006E80006F026C007F027C008F00A0E096E000EB3
:1006F8000A6E000E0B6E000E0C6E7AEC07F005C049
:100708000FF006C010F00FEC0CF00F50300FDF6E3A
:100718002A06D8A02B062C06D8A02D0624C005F042
:1007280025C006F026C007F027C008F00A0E096E9B
:10073800000E0A6E000E0B6E000E0C6E06EC06F034
:1007480005C024F006C025F007C026F008C027F031
:1007580030BEB7EF03F0305008E12F04D8A0B7EF50
:1007680003F0B9EF03F0D1EF03F024502510261061
:100778002710D8A4C2EF03F0C4EF03F068EF03F02A
:100788002BBED1EF03F02B5006E12A04D8B0CFEFEF
:1007980003F0D1EF03F068EF03F02E50D8B4D7EF91
:1007A80003F0D9EF03F0E4EF03F02F06D8A03006EA
:1007B800000E2F24D96E020E3020DA6E2EC0DFFF15
:1007C80022C017F023C018F0000E2F24196E020E55
:1007D80030201A6E2CC01BF02DC01CF075EC0AF0EE
:1007E8001200186E56A0FBEF03F0FDEF03F003EFC5
:1007F80004F0FF0E0B6E9C0E0A6ECBEF04F023EC98
:100808000AF005500610D8B40CEF04F00EEF04F00F
:1008180015EF04F05680FF0E0B6E9A0E0A6ECBEFA2
:1008280004F018C019F019507EEC09F005C01CF04E
:1008380006C01DF0FA0E1C1806E11D28D8A427EFE3
:1008480004F029EF04F032EF04F0B2EC0AF056801D
:10085800FF0E0B6E990E0A6ECBEF04F01DBE39EF3A
:1008680004F037EF04F03DEF04F0B2EC0AF00EEFBD
:1008780004F00B507EEC09F005500610D8B447EF91
:1008880004F049EF04F04BEF04F039EF04F00A509C
:100898007EEC09F005500610D8B455EF04F057EF78
:1008A80004F059EF04F039EF04F0EAEC0AF00550CF
:1008B8000610D8B462EF04F064EF04F066EF04F0B9
:1008C80039EF04F01828196E19507EEC09F005501C
:1008D8000610D8B472EF04F074EF04F076EF04F069
:1008E80039EF04F0000E1B6E000E1A6EAFEF04F025
:1008F800FF0E1024166EFF0E1120176E1A501618D0
:1009080007E11B501718D8A48CEF04F08EEF04F001
:1009180097EF04F0010EF0EC07F005C01CF006C0DC
:100928001DF09EEF04F0000EF0EC07F005C01CF07F
:1009380006C01DF01DBEA3EF04F0A5EF04F039EFCB
:1009480004F01A500E24D96E1B500F20DA6E1CC00A
:10095800DFFF1A4A1B2A10501A5C11501B58D8A0E6
:10096800B8EF04F0BAEF04F07CEF04F0B2EC0AF050
:1009780005500610D8B4C3EF04F0C5EF04F0C7EF74
:1009880004F00EEF04F0000E0B6E000E0A6E12005B
:100998000001A1BFD4EF04F0D2EF04F0DAEF04F0C5
:1009A800000E316E010E306EDEEF04F0A0C030F0A4
:1009B800A1C031F09EC02CF09FC02DF0000E336E08
:1009C8001F0E326E000E02011F6F32EF05F0320665
:1009D800D8A0330624500F0B346E090E3464F7EF99
:1009E80004F0F9EF04F001EF05F0370E34242E6E11
:1009F8002F6A000E2F2207EF05F0300E34242E6EDA
:100A08002F6A000E2F222EC034F0000E3224D96E29
:100A1800020E3320DA6E34C0DFFF3006D8A031066C
:100A28002C06D8A02D0624C028F025C029F026C001
:100A38002AF027C02BF0050E27EF05F0D8902B32AF
:100A48002A3229322832E82E22EF05F028C024F075
:100A580029C025F02AC026F02BC027F033BE3EEF70
:100A680005F0335009E1020E325CD8A03EEF05F0E4
:100A780040EF05F058EF05F02450251026102710F8
:100A8800D8A449EF05F04BEF05F0EBEF04F031BEC9
:100A980058EF05F0315006E13004D8B056EF05F0B4
:100AA80058EF05F0EBEF04F022C017F023C018F060
:100AB800000E3224196E020E33201A6E2CC01BF061
:100AC8002DC01CF075EC0AF01200166E56A06FEFE0
:100AD80005F071EF05F077EF05F0FF0E0B6E9C0E39
:100AE8000A6E05EF06F023EC0AF005500610D8B49C
:100AF80080EF05F082EF05F089EF05F05680FF0ED4
:100B08000B6E9A0E0A6E05EF06F016C017F0175016
:100B18007EEC09F005C018F006C019F0FA0E181896
:100B280006E11928D8A49BEF05F09DEF05F0A6EF84
:100B380005F0B2EC0AF05680FF0E0B6E990E0A6EA5
:100B480005EF06F019BEADEF05F0ABEF05F0B1EF1C
:100B580005F0B2EC0AF082EF05F00B507EEC09F0DC
:100B680005500610D8B4BBEF05F0BDEF05F0BFEF98
:100B780005F0ADEF05F00A507EEC09F005500610BF
:100B8800D8B4C9EF05F0CBEF05F0CDEF05F0ADEF28
:100B980005F0000E1B6E000E1A6EE9EF05F01A50F4
:100BA8000E24D96E1B500F20DA6EDF507EEC09F050
:100BB80005500610D8B4E3EF05F0E5EF05F0E7EFD0
:100BC80005F0ADEF05F01A4A1B2A10501A5C1150B7
:100BD8001B58D8A0F2EF05F0F4EF05F0D3EF05F0BD
:100BE800B2EC0AF005500610D8B4FDEF05F0FFEF9F
:100BF80005F001EF06F082EF05F0000E0B6E000E17
:100C08000A6E1200000E0E6E0CBE0FEF06F00DEF0E
:100C180006F019EF06F00C1E0B1E0A1E096C000EDA
:100C28000A220B220C22010E0E6E08BE20EF06F0DF
:100C38001EEF06F02AEF06F0081E071E061E056CBA
:100C4800000E062207220822010E0E1A000E0F6E51
:100C5800000E106E000E116E000E126E09500A1072
:100C68000B100C10D8B43BEF06F03DEF06F073EF15
:100C780006F0010E0D6E47EF06F0D89009360A36D9
:100C88000B360C360D2A0CAE4CEF06F04EEF06F084
:100C980041EF06F0D8900F3610361136123609504B
:100CA800055C0A5006580B5007580C500858D8A035
:100CB80060EF06F062EF06F06BEF06F00950055E94
:100CC8000A50065A0B50075A0C50085A0F80D890F1
:100CD8000C320B320A3209320D2E4EEF06F00E504E
:100CE800D8B479EF06F07BEF06F083EF06F0121E1A
:100CF800111E101E0F6C000E1022112212220FC09E
:100D080005F010C006F011C007F012C008F012007C
:100D1800000E0B6E240E0A6E000E0D6E010E0C6E88
:100D2800380E0E6E000E0F6E000E116E040E106E51
:100D3800000E126E000E136E000E146E000E156E6D
:100D4800DE0EF5EC03F00AC03CF00BC03DF03C5061
:100D58003D10D8A4B2EF06F0B4EF06F002EF07F0AA
:100D680039C020F0216A226A236A22C023F021C0F8
:100D780022F020C021F0206A3AC024F0256A266AB1
:100D8800276A25C027F024C026F0256A246A3BC0BC
:100D980028F0296A2A6A2B6A28C02BF02A6A296A4D
:100DA800286A245028102C6E255029102D6E2650A4
:100DB8002A102E6E27502B102F6E20502C10306EBC
:100DC80021502D10316E22502E10326E23502F10CC
:100DD800336E38503010346E3150356E3250366EB6
:100DE8003350376E1EC0D9FF1FC0DAFF34C0DEFF94
:100DF80035C0DEFF36C0DEFF37C0DEFF1200000E52
:100E08000B6E200E0A6E000E0D6E010E0C6E380E63
:100E18000E6E000E0F6E000E116E040E106E000E98
:100E2800126E000E136E000E146E000E156EDE0E9E
:100E3800F5EC03F00AC03CF00BC03DF03C503D100F
:100E4800D8A429EF07F02BEF07F079EF07F039C0A6
:100E580020F0216A226A236A22C023F021C022F0EE
:100E680020C021F0206A3AC024F0256A266A276A41
:100E780025C027F024C026F0256A246A3BC028F044
:100E8800296A2A6A2B6A28C02BF02A6A296A286AE2
:100E9800245028102C6E255029102D6E26502A100B
:100EA8002E6E27502B102F6E20502C10306E215094
:100EB8002D10316E22502E10326E23502F10336EAB
:100EC80038503010346E3150356E3250366E3350E3
:100ED800376E1EC0D9FF1FC0DAFF34C0DEFF35C031
:100EE800DEFF36C0DEFF37C0DEFF1200000E0E6EDA
:100EF80008BE83EF07F081EF07F08DEF07F0081EBB
:100F0800071E061E056C000E062207220822010E87
:100F18000E6E0CBE94EF07F092EF07F09CEF07F00F
:100F28000C1E0B1E0A1E096C000E0A220B220C2234
:100F380009500A100B100C10D8B4A5EF07F0A7EF52
:100F480007F0D7EF07F0010E0D6EB1EF07F0D8905C
:100F580009360A360B360C360D2A0CAEB6EF07F0FA
:100F6800B8EF07F0ABEF07F00950055C0A500658D8
:100F78000B5007580C500858D8A0C5EF07F0C7EF1A
:100F880007F0CFEF07F00950055E0A50065A0B50DC
:100F9800075A0C50085AD8900C320B320A320932D0
:100FA8000D2EB8EF07F00E50D8B4DDEF07F0DFEFE5
:100FB80007F0E7EF07F0081E071E061E056C000E77
:100FC80006220722082205C005F006C006F007C061
:100FD80007F008C008F01200076E0704D8A4F7EF5E
:100FE80007F0F9EF07F0FCEF07F0C58AFDEF07F00F
:100FF800C59AC586000E096E000E086E1AEF08F035
:10100800084A092A09BE12EF08F0410E085C1F0EB3
:101018000958D8A012EF08F014EF08F01AEF08F0FA
:10102800FF0E066EF60E056E56EF08F0C7A01FEF0E
:1010380008F021EF08F004EF08F0C588000E096EEB
:10104800000E086E3EEF08F0084A092A09BE36EF7E
:1010580008F0E90E085C030E0958D8A036EF08F02E
:1010680038EF08F03EEF08F0FF0E066EFE0E056E34
:1010780056EF08F0C5B843EF08F045EF08F028EF41
:1010880008F0C6AC4AEF08F04CEF08F053EF08F050
:10109800C69CFF0E066EF70E056E56EF08F0C9CF18
:1010A80005F0066A120009500A10D8B45EEF08F07D
:1010B80060EF08F069EF08F009500A10D8A467EF4C
:1010C80008F069EF08F06EEF08F007503AEC0DF001
:1010D800BBEF08F020EE0AF00950D9260A50DA22B0
:1010E800DE50DE10D8B47BEF08F07DEF08F098EF03
:1010F80008F020EE0AF00950D9260A50DA2210EE3C
:1011080003F00950E1260A50E222DE50E65CE65080
:10111800800A0F6EDE50800A0F58D8B096EF08F09C
:1011280098EF08F0BBEF08F020EE03F00950D9263D
:101138000A50DA22DECF0BF0DDCF0CF009C0D9FF60
:101148000AC0DAFFDECF0DF0DDCF0EF00B500D2414
:10115800D96E0C500E20DA6E07C0DFFF20EE03F0C8
:101168000950D9260A50DA22DE2A000EDD221200A2
:101178000F6E0FC010F056A0C4EF08F0C6EF08F0CD
:10118800DAEF08F053EC0DF04EEC0CF009500A10B1
:10119800D8A4D1EF08F0D3EF08F0D6EF08F05690B6
:1011A800DAEF08F00D680E6820EF09F023EC0AF07A
:1011B80005500610D8A4E3EF08F0E5EF08F01DEF9E
:1011C80009F010507EEC09F005C011F006C012F0CD
:1011D800B2EC0AF005500610D8A4F5EF08F0F7EFC6
:1011E80008F01DEF09F011501210D8A4FEEF08F016
:1011F80000EF09F006EF09F0000E0E6E000E0D6EFE
:1012080020EF09F0FA0E111806E11228D8A40FEF02
:1012180009F011EF09F017EF09F0FF0E0E6E990EA5
:101228000D6E20EF09F0FF0E0E6E9A0E0D6E20EF78
:1012380009F0568017EF09F0120094869488060E7C
:10124800E82EFED700D082B62CEF09F02EEF09F079
:1012580034EF09F0FF0E066EFE0E056E7DEF09F005
:10126800000E086E0A0E076E94964DEF09F082A8DC
:1012780040EF09F042EF09F044EF09F05AEF09F0A6
:101288008B9600D000D08B8600D000D00706D8A05F
:10129800080608BE5AEF09F0085006E10704D8B05E
:1012A80058EF09F05AEF09F03BEF09F0948694885B
:1012B80082B861EF09F063EF09F070EF09F082B6C8
:1012C80068EF09F06AEF09F070EF09F0FF0E066E9B
:1012D800FD0E056E7DEF09F094988B9800D000D034
:1012E8008B8800D000D094869488000E066E000E7D
:1012F800056E1200076EC7A484EF09F086EF09F0A7
:101308008CEF09F0FF0E066EF90E056ED0EF09F0AE
:1013180007C0C9FF000E096E000E086EAAEF09F09B
:10132800084A092A09BEA2EF09F0810E085C3E0EA0
:101338000958D8A0A2EF09F0A4EF09F0AAEF09F024
:10134800FF0E066EFE0E056ED0EF09F0C7B0AFEFC8
:1013580009F0B1EF09F094EF09F0A1A6B6EF09F092
:10136800B8EF09F0BFEF09F0A196FF0E066EFC0E6C
:10137800056ED0EF09F0C5ACC4EF09F0C6EF09F06F
:10138800CCEF09F0FF0E066EFA0E056ED0EF09F0ED
:10139800000E066E000E056E1200000E0D6E000E99
:1013A8000E6E000E0F6E000E106E09500A100B1014
:1013B8000C10D8B4E2EF09F0E4EF09F01AEF0AF0E4
:1013C800010E116EEEEF09F0D89009360A360B3689
:1013D8000C36112A0CAEF3EF09F0F5EF09F0E8EF3F
:1013E80009F0D8900D360E360F3610360950055CC8
:1013F8000A5006580B5007580C500858D8A007EF49
:101408000AF009EF0AF012EF0AF00950055E0A50D7
:10141800065A0B50075A0C50085A0D80D8900C32B7
:101428000B320A320932112EF5EF09F00DC005F022
:101438000EC006F00FC007F010C008F01200C580FB
:1014480000F0A1A62AEF0AF02CEF0AF034EF0AF018
:10145800C590A196FF0E066EFC0E056E74EF0AF09D
:10146800C6AE39EF0AF03BEF0AF043EF0AF0C59039
:10147800C69EFF0E066EFB0E056E74EF0AF0000E98
:10148800086E000E076E5FEF0AF0074A082A08BECA
:1014980057EF0AF0E90E075C030E0858D8A057EF7B
:1014A8000AF059EF0AF05FEF0AF0FF0E066E9B0E86
:1014B800056E74EF0AF0C5B064EF0AF066EF0AF043
:1014C80049EF0AF0A1A66BEF0AF06DEF0AF070EF92
:1014D8000AF0A1962EEF0AF0000E066E000E056EB9
:1014E80012001CBE7AEF0AF07CEF0AF082EF0AF0D5
:1014F8001BC020F01CC021F086EF0AF0000E216E00
:10150800000E206E000E1F6E000E1E6E98EF0AF081
:10151800000E086E200E076E17C009F018C00AF0FA
:1015280057EC08F01E4A1F2A20501E5C1F50800AE4
:101538001D6E2150800A1D58D8A0A5EF0AF0A7EF0C
:101548000AF08CEF0AF019C010F01AC011F017C099
:1015580012F018C013F0EDEC0BF01200C58400F087
:10156800A1A6B9EF0AF0BBEF0AF0C2EF0AF0A19604
:10157800FF0E066EFC0E056EE9EF0AF0000E086E0F
:10158800000E076EDEEF0AF0074A082A08BED6EFFB
:101598000AF0E90E075C030E0858D8A0D6EF0AF047
:1015A800D8EF0AF0DEEF0AF0FF0E066EFE0E056EAB
:1015B800E9EF0AF0C5B4E3EF0AF0E5EF0AF0C8EF87
:1015C8000AF0000E066E000E056E1200C582000EAF
:1015D800086E000E076E07EF0BF0074A082A08BED0
:1015E800FFEF0AF0E90E075C030E0858D8A0FFEFDA
:1015F8000AF001EF0BF007EF0BF0FF0E066EFE0E80
:10160800056E20EF0BF0C5B20CEF0BF00EEF0BF0F0
:10161800F1EF0AF0A1A613EF0BF015EF0BF01CEF9A
:101628000BF0A196FF0E066EFC0E056E20EF0BF078
:10163800000E066E000E056E12003F0EC716000E55
:10164800C56E800E12180BE11A0E131808E1060E6B
:1016580014181510D8A433EF0BF035EF0BF038EF52
:101668000BF0C75039EF0BF0C78E080EC66E000E90
:10167800056E090E066E3D0E076E000E086E12C04E
:1016880009F013C00AF014C00BF015C00CF0D1EC2F
:1016980009F00504C86EC68A1200680EF66E1A0EA6
:1016A800F76E000EF86E00EED8F010EE0BF00900A1
:1016B800F5CFEEFFE550E150FAE103EE00F0FE0E43
:1016C800EE6AE806FDE102EE00F0200EEE6AE8069A
:1016D800FDE100EE60F04B0EEE6AE806FDE15A6AA5
:1016E800596A586A576A566A5B905B920001C0EF64
:1016F80001F048C04CF049C04DF091EF0BF046C0E6
:1017080035F047C036F04C0E376E000E386E4AC0C2
:1017180039F04BC03AF028EC00F04CC0F6FF4DC051
:10172800F7FFF86A0800F5500009D8A49EEF0BF0FF
:10173800A0EF0BF083EF0BF0000E476E000E466E25
:1017480012001CC020F01DC021F01EC022F01FC0D6
:1017580023F0000E0B6E240E0A6E000E0D6E010EA5
:101768000C6E200E0E6E000E0F6E000E116E040E23
:10177800106E000E126E000E136E000E146E000E28
:10178800156EDE0E69EC05F012001CC020F01DC0BD
:1017980021F01EC022F01FC023F0000E0B6E200E99
:1017A8000A6E000E0D6E010E0C6E200E0E6E000EEF
:1017B8000F6E000E116E040E106E000E126E000EEB
:1017C800136E000E146E000E156EDE0E69EC05F039
:1017D8001200000E166E000E156EFEEF0BF014C010
:1017E80007F0086A12C009F013C00AF057EC08F0B5
:1017F800154A162A15501024D96E16501120DA6E83
:10180800DF50146E1450D8A40CEF0CF00EEF0CF04F
:10181800F3EF0BF0120010BE1CEF0CF0105006E1B5
:101828000F04D8B01AEF0CF01CEF0CF02AEF0CF0F4
:101838000FC011F010C012F0111E121E114A122A08
:1018480011C00FF012C010F02EEF0CF00FC00FF007
:1018580010C010F01200080EB86E900EAB6E240E79
:10186800AC6E220EAF6E000EB06E000E056E000E4E
:10187800066E49EC0DF0000E056E000E066E44EC87
:101888000DF0000E056E000E066E4EEC0DF0000E0B
:101898005A6E1200C69A21EC09F005C00BF006C07A
:1018A8000CF00CBE60EF0CF00C5008E10B04D8A053
:1018B80060EF0CF062EF0CF066EF0CF009680A6854
:1018C8006BEF0CF0C68A000E0A6E000E096E12004D
:1018D8009E9058C001F059C002F0B5EC0CF0000120
:1018E800E351E411D8B47BEF0CF07DEF0CF089EFF5
:1018F8000CF002D889EF0CF00500FA6EE351FD6E8A
:10190800E451FE6EFF6AFA5012001200000E896E52
:10191800200E8A6E010E8B6E9268C50E936EBF0EF6
:10192800946E000E0F013A6F110E396F2F0E386F3B
:10193800000E616EF18E1200000ECC6EFC0ECF6EA2
:10194800180ECE6ECECF58F0CFCF59F09E909D8016
:10195800BC0E056E1A0E066E3FEC0DF0270ECD6E0E
:101968001200CDA4BAEF0CF0BCEF0CF0C4EF0CF0F1
:10197800CD900250CF6E01C0CEFFCD80C8EF0CF0E5
:101988000250CF6E01C0CEFF1200500E546E000EF2
:10199800556E000E466E000E476E4EC048F04FC0A2
:1019A80049F0540E4A6E000E4B6E7DEC0BF012009F
:1019B800F29E8EC009F08FC00AF090C00BF091C063
:1019C8000CF0F28E09C005F00AC006F00BC007F053
:1019D8000CC008F012005AEC0DF009EC0DF013ECF5
:1019E8000DF08AEC0CF02DEC0DF0A0EC0CF02FECC7
:1019F8000CF01200056E9EA804EF0DF006EF0DF036
:101A0800FFEF0CF005C0ADFF1200000EC76E080E08
:101A1800C66E000EC56E090EC86EC69A1200400E3C
:101A28006D6E000E6C6E010E6E6E93926C9A1200C3
:101A3800000E056E000E066E000E076E000E086E94
:101A48001200010E00018E27000E8F239023912390
:101A58001200720ED36E040ED26E000E9B6E120030
:0B1A68006162636465666768696A6B11
:101A7400066E0650FEEC0CF0120005C0E3F006C042
:101A8400E4F0120005C0E7F006C0E8F0120005C05B
:101A9400E9F006C0EAF0120005C0E5F006C0E6F081
:101AA4001200C596C69EA1961200948694881200D0
:0A1AB400D09E1200C69A1200120024
:10FE200000000000000000000000000000000000D2
:10FE300000000000000000000000000000000000C2
:10FE40000000400100004027000100005665726973
:10FE5000666963616E646F206F20706F6E74656990
:10FE6000726F20646520656E6465726563616D659F
:10FE70006E746F2E2E2E0A00416C746572616E6472
:10FE80006F206F20656E646572653C45373E6F205C
:10FE9000706172613A203078313235363437383912
:10FEA0000A00486120616C676F206465206572728A
:10FEB00061646F20636F6D2061206D656D6F726985
:10FEC00061205352414D2121210A004F2073697353
:10FED00074656D61206964656E74696669636F75C8
:10FEE0002061206D656D6F726961205352414D2113
:10FEF00021210A00416C746572616E646F206F206D
:10FF000063726320706172613A2030783132353625
:10FF1000343738390A004F20706F6E746569726F1C
:10FF200020656E636F6E747261646F20666F693AEC
:10FF3000203078256C580A004F2063726320656E6C
:10FF4000636F6E747261646F20666F693A203078F7
:10FF5000256C580A0056657269666963616E646F44
:10FF6000206F206E6F766F20706F6E746569726F90
:10FF70000A004F206372632063616C63756C616477
:10FF80006F20666F693A203078256C580A00693214
:10FF900063206469727479206F6E2066697273746D
:10FFA00020636865636B0A00566572696669636100
:10FFB0006E646F206F206E6F766F206372630A002D
:10FFC000496E697420693263206275735F7265736C
:10FFD00065743A2025690A0043616C63756C616E33
:10FFE000646F206F206372632E2E2E0A0053697394
:10FFF00074656D6120496E69636961646F0A000010
:020000040020DA
:08000000FFFFFFFFFFFFFFFF00
:020000040030CA
:0E000000FF281F3CFFBF85FF0FC00FE00F4021
:00000001FF
