:0400000026EF00F0F7
:100008005B82FACF03F0FBCF04F0F2AC0EEF00F006
:1000180010EF00F020EF00F09DA015EF00F017EFB3
:1000280000F020EF00F09EA01CEF00F01EEF00F0A3
:1000380020EF00F02FEC0CF004C0FBFF03C0FAFF28
:100048005B92110042EF0BF037C0D9FF38C0DAFFDE
:10005800DECFF6FFDDCFF7FFF86A0800F550250A76
:10006800D8A439EF00F03BEF00F0AAEF01F037C059
:10007800D9FF38C0DAFFDE2A000EDD22000E0001AB
:100088009F6F000E9E6F9EC0A6F0A069A16937C041
:10009800D9FF38C0DAFFDECF44F0DDCF45F044C0E9
:1000A800F6FF45C0F7FFF86A0800F5CF43F069EF9F
:1000B80000F0444A452A86EF00F0690E436E86EF49
:1000C80000F0000E436E86EF00F043503B6E3C6A32
:1000D8003C50000AD8B473EF00F065EF00F03B50D5
:1000E800580AD8B461EF00F03C0AD8B461EF00F0C8
:1000F8000D0AD8B461EF00F0050AD8B45DEF00F03E
:1001080065EF00F044C0F6FF45C0F7FFF86A080045
:10011800F550640AD8B493EF00F095EF00F0DBEFE8
:1001280000F044C0F6FF45C0F7FFF86A0800F55034
:10013800690AD8A4A2EF00F0A4EF00F00EEF01F0D6
:10014800DBEF00F039C0D9FF3AC0DAFFDFCF3BF070
:10015800020EDE26DFCF3CF0000EDD223BC0D9FFC9
:100168003CC0DAFFDECF3FF0DDCF40F0000E40BEEE
:10017800FF0E416E426EF0EF00F039C0D9FF3AC071
:10018800DAFFDFCF3BF0040EDE26DFCF3CF0000EB7
:10019800DD223BC0D9FF3CC0DAFFDECF3FF0DECF27
:1001A80040F0DECF41F0DECF42F0F0EF00F04350F8
:1001B8003B6E3C6A3C50000AD8B4E5EF00F0F0EF23
:1001C80000F03B50690AD8B4A6EF00F0050AD8B48D
:1001D800C1EF00F0F0EF00F0010E44243B6E000E7A
:1001E80045203C6E37C0D9FF38C0DAFF3BC0DEFF80
:1001F8003CC0DDFF35C022F036C023F03FC024F0FC
:1002080040C025F041C026F042C027F0DBEC02F0E8
:10021800BFEF01F044C0F6FF45C0F7FFF86A0800D9
:10022800F550580AD8A41BEF01F01DEF01F0A1EF1B
:1002380001F055EF01F039C0D9FF3AC0DAFFDFCF3E
:100248003BF0020EDE26DFCF3CF0000EDD223BC085
:10025800D9FF3CC0DAFFDECF3DF0DDCF3EF03DC038
:100268003FF03EC040F0416A426A6AEF01F039C08F
:10027800D9FF3AC0DAFFDFCF3BF0040EDE26DFCF2E
:100288003CF0000EDD223BC0D9FF3CC0DAFFDECFD8
:100298003FF0DECF40F0DECF41F0DECF42F06AEF34
:1002A80001F043503B6E3C6A3C50000AD8B45FEF03
:1002B80001F06AEF01F03B50690AD8B41FEF01F072
:1002C800050AD8B43BEF01F06AEF01F0010E4424AF
:1002D8003B6E000E45203C6E37C0D9FF38C0DAFFB0
:1002E8003BC0DEFF3CC0DDFF8AEF01F035C022F0E5
:1002F80036C023F03FC024F040C025F041C026F0AE
:1003080042C027F033EC05F0BFEF01F044C0F6FF20
:1003180045C0F7FFF86A0800F5503B6E3C6A3C5050
:10032800000AD8B49AEF01F0A1EF01F03B50580A47
:10033800D8B47AEF01F0A1EF01F037C0D9FF38C087
:10034800DAFFDE2A000EDD22BFEF01F037C0D9FF49
:1003580038C0DAFFDECFF6FFDDCFF7FFF86A080016
:10036800F550076E086A35C009F036C00AF020EC6F
:1003780008F0A1EF01F0120020EEF0F010EECCF042
:100388000A0EDBCFE3FFE806FCE221EE00F0FD0EEB
:10039800DE6AE806FDE2000E566E000E0001DB6F15
:1003A800000EDC6F000EDD6FB2EC0CF08A8ABE0E18
:1003B800056E190E066EF9EC0CF0D09CF28EF28CDC
:1003C800000E0001E86F000EE96F000EEA6F000EE4
:1003D800EB6F000EEC6F000EED6F000EEE6F000E6F
:1003E800EF6F000EE06F000EE16F000EE26F000E7F
:1003F800E36F000EE46F000EE56F000EE66F000E6F
:10040800E76F000E0301006F000E016F000E026F10
:10041800000E036F000E0001D76F000ED86F000E9C
:10042800D96F000EDA6F9FEC0CF0ED0E4E6EFF0EDA
:100438004F6E8CEC0CF011EC0DF0800E126E1A0E53
:10044800136E060E146E000E156EEAEC0AF0EAEC56
:1004580008F005C0DEF006C0DFF0D50E4E6EFF0EC8
:100468004F6EDEC050F0DFC051F08CEC0CF0DE0EA9
:1004780085EC08F00D500E10D8A445EF02F047EFB8
:1004880002F04FEF02F0D50E4E6EFE0E4F6E8CEC62
:100498000CF055EF02F0AC0E4E6EFE0E4F6E8CEC6B
:1004A8000CF0800E4E6EFE0E4F6E8CEC0CF0E80ECB
:1004B8001E6E000E1F6ECCEC06F0470E4E6EFF0E41
:1004C8004F6EE8C050F0E9C051F0EAC052F0EBC0FE
:1004D80053F08CEC0CF0FE0E4E6EFE0E4F6E8CEC54
:1004E8000CF0890E0001E06F470EE16F560EE26FC7
:1004F800120EE36FE0C01CF0E1C01DF0E2C01EF078
:10050800E3C01FF08BEC0BF0860E4E6EFF0E4F6EA5
:100518008CEC0CF0EC0E1E6E000E1F6ECCEC06F090
:10052800470E4E6EFF0E4F6EECC050F0EDC051F00E
:10053800EEC052F0EFC053F08CEC0CF0250E4E6E6E
:10054800FF0E4F6E8CEC0CF0890E0001E46F470E25
:10055800E56F560EE66F120EE76FE4C01CF0E5C0BB
:100568001DF0E6C01EF0E7C01FF067EC0BF0BD0EF3
:100578004E6EFF0E4F6E8CEC0CF0000E1E6E030ECE
:100588001F6E55EC06F0690E4E6EFF0E4F6E00C3DF
:1005980050F001C351F002C352F003C353F08CEC86
:1005A8000CF016EC0DF0D7EF02F026EF00F027BEA6
:1005B800E0EF02F0E3EF02F0010EE4EF02F0000ECC
:1005C8002E6E2E50D8B4EBEF02F0EDEF02F0F5EFFF
:1005D80002F0271E261E251E246C000E2522262228
:1005E80027220001A1BFFDEF02F0FBEF02F003EFAD
:1005F80003F0000E2B6E010E2A6E07EF03F0A0C069
:100608002AF0A1C02BF09EC02CF09FC02DF02E50D8
:10061800D8B411EF03F013EF03F02AEF03F02C0620
:10062800D8A02D062E50D8A41CEF03F01EEF03F01F
:1006380024EF03F0000E296E2B0E286E28EF03F02E
:10064800000E296E2D0E286E28C02EF0000E306E7A
:100658001F0E2F6E000ECB6F76EF03F02F06D8A07B
:100668003006AC0E2F24D96E000E3020DA6E24C06E
:1006780005F025C006F026C007F027C008F00A0ECE
:10068800096E000E0A6E000E0B6E000E0C6E43EC27
:1006980007F005C00FF006C010F0D1EC0BF00F50BA
:1006A800300FDF6E2A06D8A02B062C06D8A02D0600
:1006B80024C005F025C006F026C007F027C008F0C2
:1006C8000A0E096E000E0A6E000E0B6E000E0C6EFE
:1006D800CFEC05F005C024F006C025F007C026F0D1
:1006E80008C027F030BE81EF03F0305008E12F0436
:1006F800D8A081EF03F083EF03F09BEF03F02450C1
:10070800251026102710D8A48CEF03F08EEF03F0E5
:1007180032EF03F02BBE9BEF03F02B5006E12A04C7
:10072800D8B099EF03F09BEF03F032EF03F02E50AF
:10073800D8B4A1EF03F0A3EF03F0AEEF03F02F0658
:10074800D8A03006AC0E2F24D96E000E3020DA6EF9
:100758002EC0DFFF22C017F023C018F0AC0E2F24E4
:10076800196E000E30201A6E2CC01BF02DC01CF024
:100778003EEC0AF01200186E57A0C5EF03F0C7EF61
:1007880003F0CDEF03F0FF0E0B6E9C0E0A6E95EF93
:1007980004F0ECEC09F005500610D8B4D6EF03F0DD
:1007A800D8EF03F0DFEF03F05780FF0E0B6E9A0EC1
:1007B8000A6E95EF04F018C019F0195047EC09F0CB
:1007C80005C01CF006C01DF0FA0E1C1806E11D2815
:1007D800D8A4F1EF03F0F3EF03F0FCEF03F07BECA8
:1007E8000AF05780FF0E0B6E990E0A6E95EF04F013
:1007F8001DBE03EF04F001EF04F007EF04F07BECFB
:100808000AF0D8EF03F00B5047EC09F0055006103A
:10081800D8B411EF04F013EF04F015EF04F003EF70
:1008280004F00A5047EC09F005500610D8B41FEF41
:1008380004F021EF04F023EF04F003EF04F0B3EC2D
:100848000AF005500610D8B42CEF04F02EEF04F08F
:1008580030EF04F003EF04F01828196E195047EC34
:1008680009F005500610D8B43CEF04F03EEF04F050
:1008780040EF04F003EF04F0000E1B6E000E1A6E3A
:1008880079EF04F0FF0E1024166EFF0E1120176E7C
:100898001A50161807E11B501718D8A456EF04F081
:1008A80058EF04F061EF04F0010EB9EC07F005C051
:1008B8001CF006C01DF068EF04F0000EB9EC07F05C
:1008C80005C01CF006C01DF01DBE6DEF04F06FEFF3
:1008D80004F003EF04F01A500E24D96E1B500F20B9
:1008E800DA6E1CC0DFFF1A4A1B2A10501A5C11501E
:1008F8001B58D8A082EF04F084EF04F046EF04F010
:100908007BEC0AF005500610D8B48DEF04F08FEF99
:1009180004F091EF04F0D8EF03F0000E0B6E000E18
:100928000A6E1200166E57A09CEF04F09EEF04F0BA
:10093800A4EF04F0FF0E0B6E9C0E0A6E32EF05F06A
:10094800ECEC09F005500610D8B4ADEF04F0AFEFA9
:1009580004F0B6EF04F05780FF0E0B6E9A0E0A6E85
:1009680032EF05F016C017F0175047EC09F005C034
:1009780018F006C019F0FA0E181806E11928D8A4BC
:10098800C8EF04F0CAEF04F0D3EF04F07BEC0AF0F0
:100998005780FF0E0B6E990E0A6E32EF05F019BEE6
:1009A800DAEF04F0D8EF04F0DEEF04F07BEC0AF0A5
:1009B800AFEF04F00B5047EC09F005500610D8B41F
:1009C800E8EF04F0EAEF04F0ECEF04F0DAEF04F0FB
:1009D8000A5047EC09F005500610D8B4F6EF04F0B9
:1009E800F8EF04F0FAEF04F0DAEF04F0000E1B6EF3
:1009F800000E1A6E16EF05F01A500E24D96E1B5011
:100A08000F20DA6EDF5047EC09F005500610D8B415
:100A180010EF05F012EF05F014EF05F0DAEF04F02F
:100A28001A4A1B2A10501A5C11501B58D8A01FEFE5
:100A380005F021EF05F000EF05F07BEC0AF005501A
:100A48000610D8B42AEF05F02CEF05F02EEF05F0CC
:100A5800AFEF04F0000E0B6E000E0A6E12000001DC
:100A6800A1BF3BEF05F039EF05F041EF05F0000EAF
:100A7800316E010E306E45EF05F0A0C030F0A1C018
:100A880031F09EC02CF09FC02DF0000E336E1F0E6B
:100A9800326E000ECB6F98EF05F03206D8A0330601
:100AA80024500F0B346E090E34645DEF05F05FEFD0
:100AB80005F067EF05F0370E34242E6E2F6A000E0E
:100AC8002F226DEF05F0300E34242E6E2F6A000EA3
:100AD8002F222EC034F0AC0E3224D96E000E3320F3
:100AE800DA6E34C0DFFF3006D8A031062C06D8A055
:100AF8002D0624C028F025C029F026C02AF027C0DA
:100B08002BF0050E8DEF05F0D8902B322A322932C2
:100B18002832E82E88EF05F028C024F029C025F0F7
:100B28002AC026F02BC027F033BEA4EF05F03350BF
:100B380009E1020E325CD8A0A4EF05F0A6EF05F09B
:100B4800BEEF05F02450251026102710D8A4AFEFCB
:100B580005F0B1EF05F051EF05F031BEBEEF05F03D
:100B6800315006E13004D8B0BCEF05F0BEEF05F017
:100B780051EF05F022C017F023C018F0AC0E322454
:100B8800196E000E33201A6E2CC01BF02DC01CF0FD
:100B98003EEC0AF01200000E0E6E0CBED8EF05F007
:100BA800D6EF05F0E2EF05F00C1E0B1E0A1E096CCD
:100BB800000E0A220B220C22010E0E6E08BEE9EF6F
:100BC80005F0E7EF05F0F3EF05F0081E071E061E17
:100BD800056C000E062207220822010E0E1A000ECE
:100BE8000F6E000E106E000E116E000E126E095080
:100BF8000A100B100C10D8B404EF06F006EF06F03C
:100C08003CEF06F0010E0D6E10EF06F0D890093695
:100C18000A360B360C360D2A0CAE15EF06F017EF18
:100C280006F00AEF06F0D8900F3610361136123655
:100C38000950055C0A5006580B5007580C500858C4
:100C4800D8A029EF06F02BEF06F034EF06F0095094
:100C5800055E0A50065A0B50075A0C50085A0F8066
:100C6800D8900C320B320A3209320D2E17EF06F0EB
:100C78000E50D8B442EF06F044EF06F04CEF06F001
:100C8800121E111E101E0F6C000E102211221222AD
:100C98000FC005F010C006F011C007F012C008F030
:100CA8001200000E0B6E240E0A6E000E0D6E010E61
:100CB8000C6E380E0E6E000E0F6E000E116E040EC6
:100CC800106E000E126E000E136E000E146E000EE3
:100CD800156EDE0EBFEC03F00AC03CF00BC03DF011
:100CE8003C503D10D8A47BEF06F07DEF06F0CBEF2B
:100CF80006F039C020F0216A226A236A22C023F054
:100D080021C022F020C021F0206A3AC024F0256AD0
:100D1800266A276A25C027F024C026F0256A246A97
:100D28003BC028F0296A2A6A2B6A28C02BF02A6A55
:100D3800296A286A245028102C6E255029102D6EF7
:100D480026502A102E6E27502B102F6E20502C1054
:100D5800306E21502D10316E22502E10326E2350DD
:100D68002F10336E38503010346E3150356E32508B
:100D7800366E3350376E1EC0D9FF1FC0DAFF34C03D
:100D8800DEFF35C0DEFF36C0DEFF37C0DEFF1200F3
:100D9800000E0B6E200E0A6E000E0D6E010E0C6E0C
:100DA800380E0E6E000E0F6E000E116E040E106ED1
:100DB800000E126E000E136E000E146E000E156EED
:100DC800DE0EBFEC03F00AC03CF00BC03DF03C5017
:100DD8003D10D8A4F2EF06F0F4EF06F042EF07F06A
:100DE80039C020F0216A226A236A22C023F021C078
:100DF80022F020C021F0206A3AC024F0256A266A31
:100E0800276A25C027F024C026F0256A246A3BC03B
:100E180028F0296A2A6A2B6A28C02BF02A6A296ACC
:100E2800286A245028102C6E255029102D6E265023
:100E38002A102E6E27502B102F6E20502C10306E3B
:100E480021502D10316E22502E10326E23502F104B
:100E5800336E38503010346E3150356E3250366E35
:100E68003350376E1EC0D9FF1FC0DAFF34C0DEFF13
:100E780035C0DEFF36C0DEFF37C0DEFF1200000ED1
:100E88000E6E08BE4CEF07F04AEF07F056EF07F07A
:100E9800081E071E061E056C000E062207220822E1
:100EA800010E0E6E0CBE5DEF07F05BEF07F065EF0D
:100EB80007F00C1E0B1E0A1E096C000E0A220B22DC
:100EC8000C2209500A100B100C10D8B46EEF07F062
:100ED80070EF07F0A0EF07F0010E0D6E7AEF07F044
:100EE800D89009360A360B360C360D2A0CAE7FEF31
:100EF80007F081EF07F074EF07F00950055C0A501E
:100F080006580B5007580C500858D8A08EEF07F019
:100F180090EF07F098EF07F00950055E0A50065A5F
:100F28000B50075A0C50085AD8900C320B320A3220
:100F380009320D2E81EF07F00E50D8B4A6EF07F056
:100F4800A8EF07F0B0EF07F0081E071E061E056C95
:100F5800000E06220722082205C005F006C006F08A
:100F680007C007F008C008F01200076E0704D8A4ED
:100F7800C0EF07F0C2EF07F0C5EF07F0C58AC6EF6C
:100F880007F0C59AC586000E096E000E086EE3EFDD
:100F980007F0084A092A09BEDBEF07F0410E085C92
:100FA8001F0E0958D8A0DBEF07F0DDEF07F0E3EFDD
:100FB80007F0FF0E066EF60E056E1FEF08F0C7A0CD
:100FC800E8EF07F0EAEF07F0CDEF07F0C588000E6D
:100FD800096E000E086E07EF08F0084A092A09BED4
:100FE800FFEF07F0E90E085C030E0958D8A0FFEFE1
:100FF80007F001EF08F007EF08F0FF0E066EFE0E8F
:10100800056E1FEF08F0C5B80CEF08F00EEF08F0FA
:10101800F1EF07F0C6AC13EF08F015EF08F01CEF7E
:1010280008F0C69CFF0E066EF70E056E1FEF08F05F
:10103800C9CF05F0066A120009500A10D8B427EF84
:1010480008F029EF08F032EF08F009500A10D8A488
:1010580030EF08F032EF08F037EF08F00750F4EC03
:101068000CF084EF08F020EE0AF00950D9260A5057
:10107800DA22DE50DE10D8B444EF08F046EF08F06C
:1010880061EF08F020EE0AF00950D9260A50DA225A
:1010980010EE03F00950E1260A50E222DE50E65C29
:1010A800E650800A0F6EDE50800A0F58D8B05FEF06
:1010B80008F061EF08F084EF08F020EE03F0095023
:1010C800D9260A50DA22DECF0BF0DDCF0CF009C0AA
:1010D800D9FF0AC0DAFFDECF0DF0DDCF0EF00B50DE
:1010E8000D24D96E0C500E20DA6E07C0DFFF20EEFB
:1010F80003F00950D9260A50DA22DE2A000EDD2232
:1011080012000F6E0FC010F057A08DEF08F08FEF90
:1011180008F0A3EF08F00DEC0DF011EC0CF00950FD
:101128000A10D8A49AEF08F09CEF08F09FEF08F097
:101138005790A3EF08F00D680E68E9EF08F0ECECA3
:1011480009F005500610D8A4ACEF08F0AEEF08F08F
:10115800E6EF08F0105047EC09F005C011F006C0A2
:1011680012F07BEC0AF005500610D8A4BEEF08F088
:10117800C0EF08F0E6EF08F011501210D8A4C7EF3E
:1011880008F0C9EF08F0CFEF08F0000E0E6E000E61
:101198000D6EE9EF08F0FA0E111806E11228D8A42E
:1011A800D8EF08F0DAEF08F0E0EF08F0FF0E0E6E67
:1011B800990E0D6EE9EF08F0FF0E0E6E9A0E0D6E89
:1011C800E9EF08F05780E0EF08F012009486948861
:1011D800060EE82EFED700D082B6F5EF08F0F7EF3E
:1011E80008F0FDEF08F0FF0E066EFE0E056E46EFE6
:1011F80009F0000E086E0A0E076E949616EF09F0B5
:1012080082A809EF09F00BEF09F00DEF09F023EFC1
:1012180009F08B9600D000D08B8600D000D007064E
:10122800D8A0080608BE23EF09F0085006E1070415
:10123800D8B021EF09F023EF09F004EF09F0948604
:10124800948882B82AEF09F02CEF09F039EF09F0F9
:1012580082B631EF09F033EF09F039EF09F0FF0EEC
:10126800066EFD0E056E46EF09F094988B9800D037
:1012780000D08B8800D000D094869488000E066E2B
:10128800000E056E1200076EC7A44DEF09F04FEF70
:1012980009F055EF09F0FF0E066EF90E056E99EF8D
:1012A80009F007C0C9FF000E096E000E086E73EF43
:1012B80009F0084A092A09BE6BEF09F0810E085C9B
:1012C8003E0E0958D8A06BEF09F06DEF09F073EFE7
:1012D80009F0FF0E066EFE0E056E99EF09F0C7B015
:1012E80078EF09F07AEF09F05DEF09F0A1A67FEF3A
:1012F80009F081EF09F088EF09F0A196FF0E066E5C
:10130800FC0E056E99EF09F0C5AC8DEF09F08FEF73
:1013180009F095EF09F0FF0E066EFA0E056E99EFCB
:1013280009F0000E066E000E056E1200000E0D6E1E
:10133800000E0E6E000E0F6E000E106E09500A1091
:101348000B100C10D8B4ABEF09F0ADEF09F0E3EFD8
:1013580009F0010E116EB7EF09F0D89009360A3678
:101368000B360C36112A0CAEBCEF09F0BEEF09F0B3
:10137800B1EF09F0D8900D360E360F3610360950F9
:10138800055C0A5006580B5007580C500858D8A04E
:10139800D0EF09F0D2EF09F0DBEF09F00950055E54
:1013A8000A50065A0B50075A0C50085A0D80D8900C
:1013B8000C320B320A320932112EBEEF09F00DC081
:1013C80005F00EC006F00FC007F010C008F01200BC
:1013D800C58000F0A1A6F3EF09F0F5EF09F0FDEFE5
:1013E80009F0C590A196FF0E066EFC0E056E3DEF46
:1013F8000AF0C6AE02EF0AF004EF0AF00CEF0AF0AA
:10140800C590C69EFF0E066EFB0E056E3DEF0AF0F8
:10141800000E086E000E076E28EF0AF0074A082A29
:1014280008BE20EF0AF0E90E075C030E0858D8A0A2
:1014380020EF0AF022EF0AF028EF0AF0FF0E066EFE
:101448009B0E056E3DEF0AF0C5B02DEF0AF02FEFA9
:101458000AF012EF0AF0A1A634EF0AF036EF0AF00C
:1014680039EF0AF0A196F7EF09F0000E066E000EAC
:10147800056E12001CBE43EF0AF045EF0AF04BEF71
:101488000AF01BC020F01CC021F04FEF0AF0000E3C
:10149800216E000E206E000E1F6E000E1E6E61EF94
:1014A8000AF0000E086E200E076E17C009F018C06B
:1014B8000AF020EC08F01E4A1F2A20501E5C1F501C
:1014C800800A1D6E2150800A1D58D8A06EEF0AF0C0
:1014D80070EF0AF055EF0AF019C010F01AC011F0B9
:1014E80017C012F018C013F0AFEC0BF01200C5844F
:1014F80000F0A1A682EF0AF084EF0AF08BEF0AF061
:10150800A196FF0E066EFC0E056EB2EF0AF0000EF5
:10151800086E000E076EA7EF0AF0074A082A08BEF1
:101528009FEF0AF0E90E075C030E0858D8A09FEF5A
:101538000AF0A1EF0AF0A7EF0AF0FF0E066EFE0E02
:10154800056EB2EF0AF0C5B4ACEF0AF0AEEF0AF0E0
:1015580091EF0AF0000E066E000E056E1200C582AD
:10156800000E086E000E076ED0EF0AF0074A082A30
:1015780008BEC8EF0AF0E90E075C030E0858D8A0A9
:10158800C8EF0AF0CAEF0AF0D0EF0AF0FF0E066EB5
:10159800FE0E056EE9EF0AF0C5B2D5EF0AF0D7EFF7
:1015A8000AF0BAEF0AF0A1A6DCEF0AF0DEEF0AF0C3
:1015B800E5EF0AF0A196FF0E066EFC0E056EE9EF48
:1015C8000AF0000E066E000E056E12003F0EC716DA
:1015D800000EC56E800E12180BE11A0E131808E1E2
:1015E800060E14181510D8A4FCEF0AF0FEEF0AF046
:1015F80001EF0BF0C75002EF0BF0C78E080EC66E56
:10160800000E056E090E066E3D0E076E000E086E82
:1016180012C009F013C00AF014C00BF015C00CF08A
:101628009AEC09F00504C86EC68A120048C04CF04E
:1016380049C04DF02EEF0BF046C035F047C036F0EC
:101648004C0E376E000E386E4AC039F04BC03AF077
:1016580028EC00F04CC0F6FF4DC0F7FFF86A080010
:10166800F5500009D8A43BEF0BF03DEF0BF020EF4D
:101678000BF0000E476E000E466E1200DC0EF66E82
:10168800190EF76E000EF86E00EEF0F010EE0BF08B
:101698000900F5CFEEFFE550E150FAE102EE00F067
:1016A800FE0EEE6AE806FDE100EE60F06C0EEE6AF2
:1016B800E806FDE15A6A596A586A576A5B905B9274
:1016C8000001C0EF01F01CC020F01DC021F01EC0B9
:1016D80022F01FC023F0000E0B6E240E0A6E000EBF
:1016E8000D6E010E0C6E200E0E6E000E0F6E000EAB
:1016F800116E040E106E000E126E000E136E000EA8
:10170800146E000E156EDE0E96EC04F012001CC06E
:1017180020F01DC021F01EC022F01FC023F0000ED3
:101728000B6E200E0A6E000E0D6E010E0C6E200E52
:101738000E6E000E0F6E000E116E040E106E000E6F
:10174800126E000E136E000E146E000E156EDE0E75
:1017580096EC04F01200000E166E000E156EC0EF27
:101768000BF014C007F0086A12C009F013C00AF0A1
:1017780020EC08F0154A162A15501024D96E165078
:101788001120DA6EDF50146E1450D8A4CEEF0BF08F
:10179800D0EF0BF0B5EF0BF0120010BEDEEF0BF040
:1017A800105006E10F04D8B0DCEF0BF0DEEF0BF0C1
:1017B800ECEF0BF00FC011F010C012F0111E121E4A
:1017C800114A122A11C00FF012C010F0F0EF0BF0FE
:1017D8000FC00FF010C010F01200080EB86E900E77
:1017E800AB6E240EAC6E220EAF6E000EB06E000E05
:1017F800056E000E066E03EC0DF0000E056E000E71
:10180800066EFEEC0CF0000E056E000E066E08EC7F
:101818000DF0000E0001AB6F1200C69AEAEC08F05A
:1018280005C00BF006C00CF00CBE23EF0CF00C50FA
:1018380008E10B04D8A023EF0CF025EF0CF029EFFA
:101848000CF009680A682EEF0CF0C68A000E0A6EC2
:10185800000E096E12009E9059C001F05AC002F0A5
:1018680078EC0CF00001FB51FC11D8B43EEF0CF001
:1018780040EF0CF04CEF0CF002D84CEF0CF00500E8
:10188800FA6EFB51FD6EFC51FE6EFF6AFA501200B3
:101898001200000E896E200E8A6E010E8B6E926801
:1018A800C50E936EBF0E946E000E0F013A6F110EA7
:1018B800396F2F0E386F000E616EF18E1200000E18
:1018C800CC6EFC0ECF6E180ECE6ECECF59F0CFCFA9
:1018D8005AF09E909D80300E056E1A0E066EF9EC39
:1018E8000CF0270ECD6E1200CDA47DEF0CF07FEF2B
:1018F8000CF087EF0CF0CD900250CF6E01C0CEFFF8
:10190800CD808BEF0CF00250CF6E01C0CEFF1200DD
:10191800500E546E000E556E000E466E000E476E49
:101928004EC048F04FC049F0540E4A6E000E4B6E40
:101938001AEC0BF01200F29E8EC009F08FC00AF06C
:1019480090C00BF091C00CF0F28E09C005F00AC0EF
:1019580006F00BC007F00CC008F0120014EC0DF0F4
:10196800CCEC0CF0D6EC0CF04DEC0CF0E7EC0CF0F9
:1019780063EC0CF0F1EC0BF01200056E9EA8C7EFBB
:101988000CF0C9EF0CF0C2EF0CF005C0ADFF12006F
:10199800000EC76E080EC66E000EC56E090EC86E24
:1019A800C69A1200400E6D6E000E6C6E010E6E6EC1
:1019B80093926C9A1200010E00018E27000E8F235D
:1019C800902391231200720ED36E040ED26E000E75
:0F19D8009B6E12006162636465666768696A6B83
:1019E800066E0650C1EC0CF0120005C0FBF006C0F4
:1019F800FCF0120005C0FEF106C0FFF1120005C0A0
:101A0800FDF006C0FEF0120005C0FEF206C0FFF2AF
:101A18001200C596C69EA19612009486948812005C
:0A1A2800D09E1200C69A12001200B0
:10FE5400000000000000000000000000000000009E
:10FE6400000000000000000000000000000000008E
:10FE7400000040010000402700010000566572693F
:10FE8400666963616E646F206F20706F6E7465695C
:10FE9400726F20646520656E6465726563616D656B
:10FEA4006E746F2E2E2E0A00486120616C676F20DD
:10FEB40064652065727261646F20636F6D206120D8
:10FEC4006D656D6F726961205352414D2121210A84
:10FED400004F2073697374656D61206964656E7485
:10FEE400696669636F752061206D656D6F72696104
:10FEF400205352414D2121210A00416C74657261E5
:10FF04006E646F206F20656E64657265E76F2070A4
:10FF14006172613A20307831323536343738390AF3
:10FF240000416C746572616E646F206F206372634C
:10FF340020706172613A2030783132353634373886
:10FF4400390A004F20706F6E746569726F20656E98
:10FF5400636F6E747261646F20666F693A203078E3
:10FF6400256C580A004F2063726320656E636F6EC0
:10FF7400747261646F20666F693A203078256C581A
:10FF84000A0056657269666963616E646F206F204A
:10FF94006E6F766F20706F6E746569726F0A006998
:10FFA4003263206469727479206F6E20666972739B
:10FFB4007420636865636B0A0056657269666963D9
:10FFC400616E646F206F206E6F766F206372630AB8
:10FFD40000496E697420693263206275735F7265CB
:10FFE4007365743A2025690A0053697374656D61F9
:0CFFF40020496E69636961646F0A0000B7
:020000040020DA
:08000000FFFFFFFFFFFFFFFF00
:020000040030CA
:0E000000FF281F3CFFBF85FF0FC00FE00F4021
:00000001FF
