:0400000026EF00F0F7
:100008005782FACF03F0FBCF04F0F2AC0EEF00F00A
:1000180010EF00F020EF00F09DA015EF00F017EFB3
:1000280000F020EF00F09EA01CEF00F01EEF00F0A3
:1000380020EF00F05BEC0FF004C0FBFF03C0FAFFF9
:100048005792110092EF0EF037C0D9FF38C0DAFF8F
:10005800DECFF6FFDDCFF7FFF86A0800F550250A76
:10006800D8A439EF00F03BEF00F040EF02F037C0C2
:10007800D9FF38C0DAFFDE2A000EDD22000E0001AB
:100088009F6F000E9E6F9EC0A6F05368546837C0DD
:10009800D9FF38C0DAFFDECF46F0DDCF47F046C0E3
:1000A800F6FF47C0F7FFF86A0800F5CF45F069EF9B
:1000B80000F0464A472A8AEF00F0690E456E8AEF3B
:1000C80000F0000E456E8AEF00F045503B6E3C6A2A
:1000D8003C50000AD8B473EF00F065EF00F03B50D5
:1000E800580AD8B461EF00F03C0AD8B461EF00F0C8
:1000F8000D0AD8B461EF00F0050AD8B45DEF00F03E
:10010800190AD8B461EF00F065EF00F046C0F6FFB9
:1001180047C0F7FFF86A0800F550640AD8B497EFAB
:1001280000F099EF00F0DFEF00F046C0F6FF47C09F
:10013800F7FFF86A0800F550690AD8A4A6EF00F09E
:10014800A8EF00F012EF01F0DFEF00F039C0D9FF9F
:100158003AC0DAFFDFCF3BF0020EDE26DFCF3CF0FD
:10016800000EDD223BC0D9FF3CC0DAFFDECF41F0F4
:10017800DDCF42F0000E42BEFF0E436E446EF4EF38
:1001880000F039C0D9FF3AC0DAFFDFCF3BF0040EE8
:10019800DE26DFCF3CF0000EDD223BC0D9FF3CC09D
:1001A800DAFFDECF41F0DECF42F0DECF43F0DECF24
:1001B80044F0F4EF00F045503B6E3C6A3C50000AB6
:1001C800D8B4E9EF00F0F4EF00F03B50690AD8B476
:1001D800AAEF00F0050AD8B4C5EF00F0F4EF00F07C
:1001E800010E46243B6E000E47203C6E37C0D9FFF7
:1001F80038C0DAFF3BC0DEFF3CC0DDFF35C022F06F
:1002080036C023F041C024F042C025F043C026F098
:1002180044C027F06EEC03F055EF02F046C0F6FF3D
:1002280047C0F7FFF86A0800F550580AD8B41FEF1E
:1002380001F021EF01F068EF01F046C0F6FF47C07A
:10024800F7FFF86A0800F550750AD8A42EEF01F0F8
:1002580030EF01F0C8EF01F068EF01F039C0D9FFC5
:100268003AC0DAFFDFCF3BF0020EDE26DFCF3CF0EC
:10027800000EDD223BC0D9FF3CC0DAFFDECF3DF0E7
:10028800DDCF3EF03DC041F03EC042F0436A446AD3
:100298007DEF01F039C0D9FF3AC0DAFFDFCF3BF07C
:1002A800040EDE26DFCF3CF0000EDD223BC0D9FF76
:1002B8003CC0DAFFDECF41F0DECF42F0DECF43F0C4
:1002C800DECF44F07DEF01F045503B6E3C6A3C5078
:1002D800000AD8B472EF01F07DEF01F03B50690AD3
:1002E800D8B432EF01F0050AD8B44EEF01F07DEF33
:1002F80001F0010E46243B6E000E47203C6E37C0CD
:10030800D9FF38C0DAFF3BC0DEFF3CC0DDFFADEFF0
:1003180001F035C022F036C023F041C024F042C0BD
:1003280025F043C026F044C027F0D7EC07F055EF7E
:1003380002F035C022F036C023F041C024F042C09C
:1003480025F043C026F044C027F0A9EC06F055EF8D
:1003580002F046C0F6FF47C0F7FFF86A0800F550FC
:100368003B6E3C6A3C50000AD8B4BDEF01F0C8EFC0
:1003780001F03B50580AD8B49DEF01F02D0AD8B4CB
:100388008DEF01F0C8EF01F037C0D9FF38C0DAFFB0
:10039800DECFF6FFDDCFF7FFF86A0800F550730AE5
:1003A800D8B4D9EF01F0DBEF01F0F6EF01F037C078
:1003B800D9FF38C0DAFFDECF05F0DDCF06F0FA0E40
:1003C800076EFF0E086E000E0A6E030E096E61ECD2
:1003D80009F005500610D8A4F4EF01F0F6EF01F08B
:1003E80037EF02F037C0D9FF38C0DAFFDECFF6FFAB
:1003F800DDCFF7FFF86A0800F550730AD8B407EFA5
:1004080002F009EF02F00FEF02F0000E406E030E4B
:100418003F6E13EF02F0000E406E010E3F6E37C0C4
:10042800D9FF38C0DAFF3F50DE264050DD2235C004
:1004380010F036C011F039C0D9FF3AC0DAFFDFCF6B
:100448003BF0020EDE26DFCF3CF0000EDD223BC083
:10045800D9FF3CC0DAFFDECF12F0DDCF13F045EC58
:1004680007F055EF02F037C0D9FF38C0DAFFDE2AAF
:10047800000EDD2255EF02F037C0D9FF38C0DAFF91
:10048800DECFF6FFDDCFF7FFF86A0800F550076EFC
:10049800086A35C009F036C00AF03DEC0AF037EFBB
:1004A80002F0120020EEE6F010EED6F00A0EDBCFD6
:1004B800E3FFE806FCE221EE00F0FD0EDE6AE80646
:1004C800FDE2000E0001E36F000E526E000EE16FB8
:1004D800000EE26F14EC10F08B80C00E056E200E3B
:1004E800066E74EC10F0D09CF28EF28C000E0301B4
:1004F800006F000E016F000E026F000E036F01EC1B
:1005080010F0D80E0001CC6FFF0ECD6FEEEC0FF09F
:100518008CEC10F0800E126E1A0E136E060E146E0E
:10052800000E156EE3EC0DF007EC0BF005C0E4F0DF
:1005380006C0E5F0A90E0001CC6FFF0ECD6FE4C038
:10054800CEF0E5C0CFF0EEEC0FF0DE0EA2EC0AF034
:100558000D500E10D8A4B3EF02F0B5EF02F0BEEFC5
:1005680002F0E00E0001CC6FFE0ECD6FEEEC0FF046
:10057800C5EF02F0B70E0001CC6FFE0ECD6FEEECAA
:100588000FF08B0E0001CC6FFE0ECD6FEEEC0FF06E
:10059800000E1E6E030E1F6E79EC0FF0520E000156
:1005A800CC6FFF0ECD6F00C3CEF001C3CFF002C3F6
:1005B800D0F003C3D1F0EEEC0FF0090E0001CC6FC0
:1005C800FF0ECD6FEEEC0FF0780E0301006F560EA4
:1005D800016F340E026F120E036F00C31CF001C3CB
:1005E8001DF002C31EF003C31FF0B7EC0EF0720E2D
:1005F8000001CC6FFF0ECD6FEEEC0FF0000E1E6EFB
:10060800030E1F6E79EC0FF0300E0001CC6FFF0E59
:10061800CD6F00C3CEF001C3CFF002C3D0F003C347
:10062800D1F0EEEC0FF091EC10F094889496949A37
:1006380057EC10F0000E64EC0BF052EC04F00001E3
:10064800E36F300ECC6FFE0ECD6F84C0CEF0CF6B53
:1006580085C0D0F086C0D1F087C0D2F088C0D3F072
:1006680089C0D4F0D56BEEEC0FF0D60E0B6E000EF1
:100678000C6E000E0E6E090E0D6E000E106E000E42
:100688000F6E13EC0EF00001E36F000E0B6E010EFF
:100698000C6E000E0E6E190E0D6E000E106E000E12
:1006A8000F6EF7EC0CF00001E36FC10ECC6FFF0E7C
:1006B800CD6F000ECE6F010ECF6FEEEC0FF0EA0E8D
:1006C8000001CC6FFF0ECD6FEEEC0FF06AEF03F078
:1006D80026EF00F027BE73EF03F076EF03F0010E6C
:1006E80077EF03F0000E2E6E2E50D8B47EEF03F095
:1006F80080EF03F088EF03F0271E261E251E246CCA
:10070800000E25222622272254BE8FEF03F08DEFFC
:1007180003F095EF03F0000E2B6E010E2A6E99EF91
:1007280003F053C02AF054C02BF09EC02CF09FC099
:100738002DF02E50D8B4A3EF03F0A5EF03F0BCEFD3
:1007480003F02C06D8A02D062E50D8A4AEEF03F047
:10075800B0EF03F0B6EF03F0000E296E2B0E286EF3
:10076800BAEF03F0000E296E2D0E286E28C02EF069
:10077800000E306E1F0E2F6E000E0001CB6F09EFBA
:1007880004F02F06D8A03006AC0E2F24D96E000E28
:100798003020DA6E24C005F025C006F026C007F028
:1007A80027C008F00A0E096E000E0A6E000E0B6EC6
:1007B800000E0C6EEBEC08F005C00FF006C010F050
:1007C800FDEC0EF00F50300FDF6E2A06D8A02B0676
:1007D8002C06D8A02D0624C005F025C006F026C09A
:1007E80007F027C008F00A0E096E000E0A6E000E08
:1007F8000B6E000E0C6E65EC08F005C024F006C008
:1008080025F007C026F008C027F030BE14EF04F02A
:10081800305008E12F04D8A014EF04F016EF04F0CC
:100828002EEF04F02450251026102710D8A41FEF0F
:1008380004F021EF04F0C5EF03F02BBE2EEF04F017
:100848002B5006E12A04D8B02CEF04F02EEF04F068
:10085800C5EF03F02E50D8B434EF04F036EF04F0AF
:1008680041EF04F02F06D8A03006AC0E2F24D96E25
:10087800000E3020DA6E2EC0DFFF22C017F023C032
:1008880018F0AC0E2F24196E000E30201A6E2CC0F2
:100898001BF02DC01CF037EC0DF012008B808B94F0
:1008A8001A0E076EF80EE82EFED7072EFCD700D0DA
:1008B8008B841A0E076EF80EE82EFED7072EFCD78B
:1008C80000D08B909F0E21EC10F0A50E21EC10F0BB
:1008D8000A6EA50E21EC10F0096E8B8039EC10F031
:1008E8000B6E1F0E0A18D8A47CEF04F07EEF04F0FC
:1008F80033EF05F00AEF05F0020E0001846F040ED5
:10090800886F000E876F0BA08CEF04F08EEF04F059
:1009180096EF04F0000E896F010E866F000E856F4A
:1009280030EF05F0090E896F010E866F080E856F8E
:1009380030EF05F0040E0001846F080E886F000E7A
:10094800876F0BA0AAEF04F0ACEF04F096EF04F069
:100958008EEF04F0080E0001846F100E886F000EF1
:10096800876F0BA0BAEF04F0BCEF04F096EF04F029
:100978008EEF04F0100E0001846F100E886F000EC9
:10098800876F0BA0CAEF04F0CCEF04F0D4EF04F0AB
:10099800000E896F020E866F000E856F30EF05F02E
:1009A8000A0E896F020E866F100E856F30EF05F004
:1009B800200E0001846F200E886F000E876F0BA039
:1009C800E8EF04F0EAEF04F0D4EF04F0CCEF04F021
:1009D800400E0001846F200E886F000E876F0BA0F9
:1009E800F8EF04F0FAEF04F002EF05F0000E896F5B
:1009F800040E866F000E856F30EF05F00B0E896FC1
:100A0800040E866F200E856F30EF05F009501F0B1E
:100A1800076E086A0850000AD8B415EF05F030EFE1
:100A280005F00750030AD8B480EF04F0070AD8B4D9
:100A38009EEF04F0010AD8B4AEEF04F0030AD8B46C
:100A4800BEEF04F0010AD8B4DCEF04F00F0AD8B402
:100A5800ECEF04F030EF05F0000E34EF05F0010E76
:100A68001200186E55A03BEF05F03DEF05F043EF7F
:100A780005F0FF0E0B6E9C0E0A6E0BEF06F061EC94
:100A88000CF005500610D8B44CEF05F04EEF05F009
:100A980055EF05F05580FF0E0B6E9A0E0A6E0BEFA0
:100AA80006F018C019F01950BCEC0BF005C01CF08A
:100AB80006C01DF0FA0E1C1806E11D28D8A467EF21
:100AC80005F069EF05F072EF05F074EC0DF0558054
:100AD800FF0E0B6E990E0A6E0BEF06F01DBE79EF36
:100AE80005F077EF05F07DEF05F074EC0DF04EEFB3
:100AF80005F00B50BCEC0BF005500610D8B487EF8E
:100B080005F089EF05F08BEF05F079EF05F00A5055
:100B1800BCEC0BF005500610D8B495EF05F097EF34
:100B280005F099EF05F079EF05F0ACEC0DF0055004
:100B38000610D8B4A2EF05F0A4EF05F0A6EF05F073
:100B480079EF05F01828196E1950BCEC0BF0055018
:100B58000610D8B4B2EF05F0B4EF05F0B6EF05F023
:100B680079EF05F0000E1B6E000E1A6EEFEF05F020
:100B7800FF0E1024166EFF0E1120176E1A5016184D
:100B880007E11B501718D8A4CCEF05F0CEEF05F0FD
:100B9800D7EF05F0010ED6EC09F005C01CF006C031
:100BA8001DF0DEEF05F0000ED6EC09F005C01CF0D4
:100BB80006C01DF01DBEE3EF05F0E5EF05F079EF87
:100BC80005F01A500E24D96E1B500F20DA6E1CC087
:100BD800DFFF1A4A1B2A10501A5C11501B58D8A064
:100BE800F8EF05F0FAEF05F0BCEF05F074EC0DF046
:100BF80005500610D8B403EF06F005EF06F007EF2E
:100C080006F04EEF05F0000E0B6E000E0A6E120095
:100C1800166E55A012EF06F014EF06F01AEF06F064
:100C2800FF0E0B6E9C0E0A6EA8EF06F061EC0CF03E
:100C380005500610D8B423EF06F025EF06F02CEF88
:100C480006F05580FF0E0B6E9A0E0A6EA8EF06F09E
:100C580016C017F01750BCEC0BF005C018F006C012
:100C680019F0FA0E181806E11928D8A43EEF06F074
:100C780040EF06F049EF06F074EC0DF05580FF0EDA
:100C88000B6E990E0A6EA8EF06F019BE50EF06F02B
:100C98004EEF06F054EF06F074EC0DF025EF06F079
:100CA8000B50BCEC0BF005500610D8B45EEF06F004
:100CB80060EF06F062EF06F050EF06F00A50BCEC69
:100CC8000BF005500610D8B46CEF06F06EEF06F086
:100CD80070EF06F050EF06F0000E1B6E000E1A6E55
:100CE8008CEF06F01A500E24D96E1B500F20DA6EC6
:100CF800DF50BCEC0BF005500610D8B486EF06F0B8
:100D080088EF06F08AEF06F050EF06F01A4A1B2A21
:100D180010501A5C11501B58D8A095EF06F097EFA9
:100D280006F076EF06F074EC0DF005500610D8B416
:100D3800A0EF06F0A2EF06F0A4EF06F025EF06F00C
:100D4800000E0B6E000E0A6E120054BEB0EF06F0D5
:100D5800AEEF06F0B6EF06F0000E316E010E306E03
:100D6800BAEF06F053C030F054C031F09EC02CF0FA
:100D78009FC02DF0000E336E1F0E326E000E000164
:100D8800CB6F0EEF07F03206D8A0330624500F0BB6
:100D9800346E090E3464D3EF06F0D5EF06F0DDEFBC
:100DA80006F0370E34242E6E2F6A000E2F22E3EF42
:100DB80006F0300E34242E6E2F6A000E2F222EC01D
:100DC80034F0AC0E3224D96E000E3320DA6E34C003
:100DD800DFFF3006D8A031062C06D8A02D0624C087
:100DE80028F025C029F026C02AF027C02BF0050ED0
:100DF80003EF07F0D8902B322A3229322832E82E16
:100E0800FEEF06F028C024F029C025F02AC026F0FD
:100E18002BC027F033BE1AEF07F0335009E1020E5A
:100E2800325CD8A01AEF07F01CEF07F034EF07F098
:100E38002450251026102710D8A425EF07F027EFF7
:100E480007F0C7EF06F031BE34EF07F0315006E186
:100E58003004D8B032EF07F034EF07F0C7EF06F0F0
:100E680022C017F023C018F0AC0E3224196E000E01
:100E780033201A6E2CC01BF02DC01CF037EC0DF07F
:100E8800120020EEF1F010EE15F0060EDBCFE3FFB6
:100E9800E806FCE212C020F013C021F02050211017
:100EA800D8A459EF07F05BEF07F05FEF07F0150ED6
:100EB800206E000E216E20C005F021C006F095ECD2
:100EC8000FF005C022F006C023F053C024F054C030
:100ED80025F025BE72EF07F074EF07F089EF07F0F1
:100EE8002250245C2550800A146E2350800A14581E
:100EF800D8A081EF07F083EF07F085EF07F089EFBF
:100F080007F024C022F025C023F022C024F023C01B
:100F180025F09EC01CF09FC01DF09FEF07F0000E4B
:100F2800086E200E076E10C009F011C00AF03DECE3
:100F38000AF0224A232A1C50225C2350800A146E8D
:100F48001D50800A1458D8A0ACEF07F0AEEF07F098
:100F580093EF07F0000E1F6E000E1E6EC7EF07F02E
:100F680020C0D9FF21C0DAFFDF50146E1450076E7D
:100F7800086A10C009F011C00AF03DEC0AF0204AD6
:100F8800212A1E4A1F2A24501E5C1F50800A146EF4
:100F98002550800A1458D8A0D4EF07F0D6EF07F0F0
:100FA800B4EF07F0120054BEDEEF07F0DCEF07F0F5
:100FB800E4EF07F0000E2B6E010E2A6EE8EF07F043
:100FC80053C02AF054C02BF09EC028F09FC029F0CF
:100FD800000E2D6E1F0E2C6E000E0001CB6F33EF2E
:100FE80008F02C06D8A02D06AC0E2C24D96E000EC5
:100FF8002D20DA6E24C005F025C006F026C007F0C3
:1010080027C008F00A0E096E000E0A6E000E0B6E5D
:10101800000E0C6EB3EC0CF00550300FDF6E2A0694
:10102800D8A02B062806D8A0290624C005F025C07C
:1010380006F026C007F027C008F00A0E096E000E59
:101048000A6E000E0B6E000E0C6E0FEC0CF005C055
:1010580024F006C025F007C026F008C027F02C5061
:101068002D10D8B43AEF08F03CEF08F054EF08F030
:101078002450251026102710D8A445EF08F047EF74
:1010880008F0F5EF07F02BBE54EF08F02B5006E1FF
:101098002A04D8B052EF08F054EF08F0F5EF07F043
:1010A80022C017F023C018F0AC0E2C24196E000EC5
:1010B8002D201A6E28C01BF029C01CF037EC0DF04B
:1010C8001200000E0E6E0CBE6EEF08F06CEF08F00A
:1010D80078EF08F00C1E0B1E0A1E096C000E0A227F
:1010E8000B220C22010E0E6E08BE7FEF08F07DEF7A
:1010F80008F089EF08F0081E071E061E056C000E92
:10110800062207220822010E0E1A000E0F6E000E8C
:10111800106E000E116E000E126E09500A100B10A0
:101128000C10D8B49AEF08F09CEF08F0D2EF08F052
:10113800010E0D6EA6EF08F0D89009360A360B3668
:101148000C360D2A0CAEABEF08F0ADEF08F0A0EFAF
:1011580008F0D8900F361036113612360950055C53
:101168000A5006580B5007580C500858D8A0BFEF23
:1011780008F0C1EF08F0CAEF08F00950055E0A5000
:10118800065A0B50075A0C50085A0F80D8900C3248
:101198000B320A3209320D2EADEF08F00E50D8B4DA
:1011A800D8EF08F0DAEF08F0E2EF08F0121E111E8F
:1011B800101E0F6C000E1022112212220FC005F013
:1011C80010C006F011C007F012C008F01200000E9F
:1011D8000E6E08BEF4EF08F0F2EF08F0FEEF08F02C
:1011E800081E071E061E056C000E0622072208228E
:1011F800010E0E6E0CBE05EF09F003EF09F00DEFBE
:1012080009F00C1E0B1E0A1E096C000E0A220B2286
:101218000C2209500A100B100C10D8B416EF09F064
:1012280018EF09F048EF09F0010E0D6E22EF09F0F2
:10123800D89009360A360B360C360D2A0CAE27EF35
:1012480009F029EF09F01CEF09F00950055C0A5074
:1012580006580B5007580C500858D8A036EF09F01C
:1012680038EF09F040EF09F00950055E0A50065AB8
:101278000B50075A0C50085AD8900C320B320A32CD
:1012880009320D2E29EF09F00E50D8B44EEF09F0AF
:1012980050EF09F058EF09F0081E071E061E056CEE
:1012A800000E06220722082205C005F006C006F037
:1012B80007C007F008C008F0120005C00CF006C00F
:1012C8000DF007C00EF008C00FF00906D8A00A06F6
:1012D800092806E10A28D8A474EF09F076EF09F086
:1012E80083EF09F0000E066E000E056ED5EF09F0CB
:1012F8000C4A0D2A0E4A0F2A0906D8A00A060CC065
:10130800F6FF0DC0F7FFF86A0800F5500009D8B4D9
:1013180090EF09F092EF09F0C1EF09F00EC0F6FF67
:101328000FC0F7FFF86A0800F5500009D8B49FEF1E
:1013380009F0A1EF09F0C1EF09F009500A10D8B47B
:10134800A8EF09F0AAEF09F0C1EF09F00CC0F6FF09
:101358000DC0F7FFF86A0800F5CF0BF00EC0F6FFD6
:101368000FC0F7FFF86A0800F5500B18D8B4BFEFA4
:1013780009F0C1EF09F07CEF09F00CC0F6FF0DC0D1
:10138800F7FFF86A0800F5CF0BF00EC0F6FF0FC0A4
:10139800F7FFF86A0800F5500B5C056E066AD8A0DE
:1013A80006061200076E0704D8A4DDEF09F0DFEF88
:1013B80009F0E2EF09F0C58AE3EF09F0C59AC5869E
:1013C800000E096E000E086E00EF0AF0084A092A9E
:1013D80009BEF8EF09F0410E085C1F0E0958D8A0A5
:1013E800F8EF09F0FAEF09F000EF0AF0FF0E066EC9
:1013F800F60E056E3CEF0AF0C7A005EF0AF007EFFE
:101408000AF0EAEF09F0C588000E096E000E086EB2
:1014180024EF0AF0084A092A09BE1CEF0AF0E90E6F
:10142800085C030E0958D8A01CEF0AF01EEF0AF05A
:1014380024EF0AF0FF0E066EFE0E056E3CEF0AF072
:10144800C5B829EF0AF02BEF0AF00EEF0AF0C6AC88
:1014580030EF0AF032EF0AF039EF0AF0C69CFF0EBF
:10146800066EF70E056E3CEF0AF0C9CF05F0066A66
:10147800120009500A10D8B444EF0AF046EF0AF0F7
:101488004FEF0AF009500A10D8A44DEF0AF04FEFB9
:101498000AF054EF0AF007506FEC10F0A1EF0AF0D1
:1014A80020EE0AF00950D9260A50DA22DE50DE1062
:1014B800D8B461EF0AF063EF0AF07EEF0AF020EE8D
:1014C8000AF00950D9260A50DA2210EE03F0095022
:1014D800E1260A50E222DE50E65CE650800A0F6EF2
:1014E800DE50800A0F58D8B07CEF0AF07EEF0AF081
:1014F800A1EF0AF020EE03F00950D9260A50DA22AB
:10150800DECF0BF0DDCF0CF009C0D9FF0AC0DAFF3F
:10151800DECF0DF0DDCF0EF00B500D24D96E0C5040
:101528000E20DA6E07C0DFFF20EE03F00950D9263F
:101538000A50DA22DE2A000EDD2212000F6E0FC0DA
:1015480010F055A0AAEF0AF0ACEF0AF0C0EF0AF0CD
:1015580088EC10F03DEC0FF009500A10D8A4B7EF52
:101568000AF0B9EF0AF0BCEF0AF05590C0EF0AF0A4
:101578000D680E6806EF0BF061EC0CF005500610D4
:10158800D8A4C9EF0AF0CBEF0AF003EF0BF0105024
:10159800BCEC0BF005C011F006C012F074EC0DF0B5
:1015A80005500610D8A4DBEF0AF0DDEF0AF003EFD0
:1015B8000BF011501210D8A4E4EF0AF0E6EF0AF08D
:1015C800ECEF0AF0000E0E6E000E0D6E06EF0BF03B
:1015D800FA0E111806E11228D8A4F5EF0AF0F7EF71
:1015E8000AF0FDEF0AF0FF0E0E6E990E0D6E06EF73
:1015F8000BF0FF0E0E6E9A0E0D6E06EF0BF0558077
:10160800FDEF0AF0120094869488060EE82EFED7A5
:1016180000D082B612EF0BF014EF0BF01AEF0BF0BC
:10162800FF0E066EFE0E056E63EF0BF0000E086EE1
:101638000A0E076E949633EF0BF082A826EF0BF094
:1016480028EF0BF02AEF0BF040EF0BF08B9600D051
:1016580000D08B8600D000D00706D8A0080608BEA8
:1016680040EF0BF0085006E10704D8B03EEF0BF04E
:1016780040EF0BF021EF0BF09486948882B847EF87
:101688000BF049EF0BF056EF0BF082B64EEF0BF074
:1016980050EF0BF056EF0BF0FF0E066EFD0E056EC9
:1016A80063EF0BF094988B9800D000D08B8800D013
:1016B80000D094869488000E066E000E056E120007
:1016C800066EC6BA6AEF0BF06CEF0BF0BBEF0BF0CF
:1016D8000650040D010EF326000EF422290EF32401
:1016E800F66EFE0EF420F76EF86A000EF822080077
:1016F800F5CFC7FF0650040D290EF324F66EFE0E33
:10170800F420F76EF86A000EF8220800F5CFC6FF3D
:10171800000EC56E0650040D020EF326000EF422CC
:10172800290EF324F66EFE0EF420F76EF86A000E0A
:10173800F8220800F5CFC8FF0650040D030EF32663
:10174800000EF422290EF324F66EFE0EF420F76E36
:10175800F86A000EF8220800F5CF05F005460546A0
:10176800054694500518F70B0518946EC68A1200A2
:10177800076EC7A4C2EF0BF0C4EF0BF0CAEF0BF073
:10178800FF0E066EF90E056E0EEF0CF007C0C9FFCE
:10179800000E096E000E086EE8EF0BF0084A092AE1
:1017A80009BEE0EF0BF0810E085C3E0E0958D8A088
:1017B800E0EF0BF0E2EF0BF0E8EF0BF0FF0E066E38
:1017C800FE0E056E0EEF0CF0C7B0EDEF0BF0EFEF6D
:1017D8000BF0D2EF0BF0A1A6F4EF0BF0F6EF0BF045
:1017E800FDEF0BF0A196FF0E066EFC0E056E0EEFD8
:1017F8000CF0C5AC02EF0CF004EF0CF00AEF0CF0A3
:10180800FF0E066EFA0E056E0EEF0CF0000E066E59
:10181800000E056E1200000E0D6E000E0E6E000E0C
:101828000F6E000E106E09500A100B100C10D8B471
:1018380020EF0CF022EF0CF058EF0CF0010E116EB7
:101848002CEF0CF0D89009360A360B360C36112AD4
:101858000CAE31EF0CF033EF0CF026EF0CF0D89013
:101868000D360E360F3610360950055C0A500658EC
:101878000B5007580C500858D8A045EF0CF047EF0C
:101888000CF050EF0CF00950055E0A50065A0B5048
:10189800075A0C50085A0D80D8900C320B320A3275
:1018A8000932112E33EF0CF00DC005F00EC006F012
:1018B8000FC007F010C008F01200C58000F0A1A604
:1018C80068EF0CF06AEF0CF072EF0CF0C590A1967F
:1018D800FF0E066EFC0E056EB2EF0CF0C6AE77EF8B
:1018E8000CF079EF0CF081EF0CF0C590C69EFF0E5E
:1018F800066EFB0E056EB2EF0CF0000E086E000EC1
:10190800076E9DEF0CF0074A082A08BE95EF0CF009
:10191800E90E075C030E0858D8A095EF0CF097EF76
:101928000CF09DEF0CF0FF0E066E9B0E056EB2EFED
:101938000CF0C5B0A2EF0CF0A4EF0CF087EF0CF0A0
:10194800A1A6A9EF0CF0ABEF0CF0AEEF0CF0A1964E
:101958006CEF0CF0000E066E000E056E12000950BA
:101968000A100B100C10D8B4BCEF0CF0BEEF0CF042
:10197800EEEF0CF0010E0D6EC8EF0CF0D8900936A2
:101988000A360B360C360D2A0CAECDEF0CF0CFEF25
:101998000CF0C2EF0CF00950055C0A5006580B50C9
:1019A80007580C500858D8A0DCEF0CF0DEEF0CF00C
:1019B800E6EF0CF00950055E0A50065A0B50075A1C
:1019C8000C50085AD8900C320B320A3209320D2EBC
:1019D800CFEF0CF005C005F006C006F007C007F011
:1019E80008C008F0120089C011F00FC012F010C032
:1019F80013F0112A03EF0DF0D89012361336112E7A
:101A080000EF0DF012C00FF013C010F00D500001E0
:101A1800855D0E508659D8B014EF0DF016EF0DF015
:101A28001AEF0DF085C00DF086C00EF08B900B0EEE
:101A380021EC10F00F5021EC10F0105021EC10F0B8
:101A48000F5021EC10F0000E21EC10F00BC005F047
:101A58000CC006F00DC007F00EC008F040EC0EF008
:101A68008B80000E12001CBE3CEF0DF03EEF0DF017
:101A780044EF0DF01BC020F01CC021F048EF0DF022
:101A8800000E216E000E206E000E1F6E000E1E6EE0
:101A98005AEF0DF0000E086E200E076E17C009F001
:101AA80018C00AF03DEC0AF01E4A1F2A20501E5C9E
:101AB8001F50800A1D6E2150800A1D58D8A067EF5C
:101AC8000DF069EF0DF04EEF0DF019C010F01AC0CF
:101AD80011F017C012F018C013F0DBEC0EF0120072
:101AE800C58400F0A1A67BEF0DF07DEF0DF084EF2B
:101AF8000DF0A196FF0E066EFC0E056EABEF0DF015
:101B0800000E086E000E076EA0EF0DF0074A082AB7
:101B180008BE98EF0DF0E90E075C030E0858D8A030
:101B280098EF0DF09AEF0DF0A0EF0DF0FF0E066E96
:101B3800FE0E056EABEF0DF0C5B4A5EF0DF0A7EFE7
:101B48000DF08AEF0DF0000E066E000E056E120005
:101B5800C582000E086E000E076EC9EF0DF0074A29
:101B6800082A08BEC1EF0DF0E90E075C030E0858FD
:101B7800D8A0C1EF0DF0C3EF0DF0C9EF0DF0FF0EC7
:101B8800066EFE0E056EE2EF0DF0C5B2CEEF0DF05B
:101B9800D0EF0DF0B3EF0DF0A1A6D5EF0DF0D7EF14
:101BA8000DF0DEEF0DF0A196FF0E066EFC0E056E31
:101BB800E2EF0DF0000E066E000E056E12003F0EED
:101BC800C716000EC56E800E12180BE11A0E1318F8
:101BD80008E1060E14181510D8A4F5EF0DF0F7EF6C
:101BE8000DF0FAEF0DF0C750FBEF0DF0C78E080EA1
:101BF800C66E000E056E090E066E3D0E076E000ECF
:101C0800086E12C009F013C00AF014C00BF015C01A
:101C18000CF00FEC0CF00504C86EC68A120089C0DF
:101C280011F00FC012F010C013F0112A1FEF0EF0C0
:101C3800D89012361336112E1CEF0EF012C00FF08A
:101C480013C010F08B90820E21EC10F00F5021EC95
:101C580010F0105021EC10F00F5021EC10F00BC0D8
:101C680005F00CC006F00DC007F00EC008F040ECFF
:101C78000EF08B80000E120005C009F006C00AF0B5
:101C88005CEF0EF009C0D9FF0AC0DAFFDF50C96E59
:101C98009EA651EF0EF053EF0EF04CEF0EF09E960D
:101CA80009C0D9FF0AC0DAFFC9CFDFFF094A0A2AEB
:101CB8000706D8A00806072806E10828D8A467EF71
:101CC8000EF069EF0EF046EF0EF012004AC04EF02B
:101CD8004BC04FF07EEF0EF048C035F049C036F0EB
:101CE8004E0E376E000E386E4CC039F04DC03AF0CB
:101CF80028EC00F04EC0F6FF4FC0F7FFF86A080066
:101D0800F5500009D8A48BEF0EF08DEF0EF070EFB0
:101D18000EF0000E496E000E486E12009C0EF66E14
:101D2800200EF76E000EF86E00EEE6F010EE12F0E0
:101D38000900F5CFEEFFE550E150FAE102EE00F0C0
:101D4800FE0EEE6AE806FDE100EE60F06C0EEE6A4B
:101D5800E806FDE1566A556A546A536A57905792E5
:101D6800000156EF02F01CC020F01DC021F01EC07B
:101D780022F01FC023F0000E0B6E200E0A6E000E1C
:101D88000D6E010E0C6E200E0E6E000E0F6E000E04
:101D9800116E040E106E000E126E000E136E000E01
:101DA800146E000E156EDE0E0CEC06F01200000E1E
:101DB800166E000E156EECEF0EF014C007F0086AF0
:101DC80012C009F013C00AF03DEC0AF0154A162AB1
:101DD80015501024D96E16501120DA6EDF50146E8B
:101DE8001450D8A4FAEF0EF0FCEF0EF0E1EF0EF06D
:101DF800120010BE0AEF0FF0105006E10F04D8B021
:101E080008EF0FF00AEF0FF018EF0FF00FC011F006
:101E180010C012F0111E121E114A122A11C00FF022
:101E280012C010F01CEF0FF00FC00FF010C010F030
:101E38001200080EB86E900EAB6E240EAC6E220E19
:101E4800AF6E000EB06E000E056E000E066E7EECD4
:101E580010F0000E056E000E066E79EC10F0000E04
:101E6800056E000E066E83EC10F0000E0001AB6FDD
:101E78001200C69A07EC0BF005C00BF006C00CF078
:101E88000CBE4FEF0FF00C5008E10B04D8A04FEF39
:101E98000FF051EF0FF055EF0FF009680A685AEF8D
:101EA8000FF0C68A000E0A6E000E096E12009E9090
:101EB800A4C001F0A5C002F0DAEC0FF00001F8515F
:101EC800F911D8B46AEF0FF06CEF0FF078EF0FF05C
:101ED80002D878EF0FF00500FA6EF851FD6EF9514F
:101EE800FE6EFF6AFA5012001200000E0B6E200EF2
:101EF8000A6E000E0D6E010E0C6E200E0E6E000E98
:101F08000F6E000E116E040E106E000E126E000E93
:101F1800136E000E146E000E156EDE0E35EC05F015
:101F2800120005C007F006C008F09DEF0FF0054A43
:101F3800062A05C0D9FF06C0DAFFDF50D8A4A7EFEC
:101F48000FF0A9EF0FF09BEF0FF00750055C056E3F
:101F580008500658066E1200000ECC6EFC0ECF6EAE
:101F6800180ECE6ECECFA4F0CFCFA5F09E909D8058
:101F7800260E056E210E066E74EC10F0270ECD6E3F
:101F88001200000E896E000E8A6E010E8B6E92682A
:101F980093689A0E946E000E0F013A6F3F0E396FD8
:101FA8002F0E386F000E616EF18E1200CDA4DFEF98
:101FB8000FF0E1EF0FF0E9EF0FF0CD900250CF6E88
:101FC80001C0CEFFCD80EDEF0FF00250CF6E01C003
:101FD800CEFF1200CE0E506E000E516E000E486EEF
:101FE800000E496ECCC04AF0CDC04BF0500E4C6E7E
:101FF800000E4D6E6AEC0EF01200F29E8EC009F0D3
:102008008FC00AF090C00BF091C00CF0F28E09C09E
:1020180005F00AC006F00BC007F00CC008F012006B
:102028008FEC10F044EC10F0C5EC0FF068EC10F0F9
:10203800B0EC0FF01DEC0FF01200056E05C0C9FFE3
:102048009EA629EF10F02BEF10F024EF10F09E96CB
:10205800C9501200056E9EA834EF10F036EF10F04C
:102068002FEF10F005C0ADFF12008B90D70E21ECBA
:1020780010F0000E21EC10F0066E8B800650120056
:10208800000EC76E080EC66E000EC56E270EC86E0F
:10209800C69A1200000102030405060708090A2867
:1020A8006E756C6C2900400EC76E000EC66E270E4A
:1020B800C86E9496C69A1200010E00018E27000E73
:1020C8008F23902391231200720ED36E040ED26ECA
:1020D800000E9B6E1200066E06502EEC10F01200D9
:1020E80005C0F8F006C0F9F0120005C0FCF006C003
:1020F800FDF0120005C0FEF006C0FFF0120005C09A
:10210800FAF006C0FBF01200C596C69EA196120012
:10211800948694881200D09E1200C69A120012006B
:10FE080000000000000000000000000000000000EA
:10FE180000000000000000000000000000000000DA
:10FE280000004027000100004D656D6F7279204683
:10FE38006F756E642077697468204A454445434964
:10FE4800443A20546F74616C2073697A653A256965
:10FE58004D6269742C20506167652073697A653A30
:10FE680020256942797465732C204E2E20706167B5
:10FE780065733A2025692C2053686966743A2025F1
:10FE8800690A0056657269666963616E646F206FFE
:10FE980020706F6E746569726F20646520656E648A
:10FEA80065726563616D656E746F2E2E2E0A00484B
:10FEB8006120616C676F2064652065727261646F90
:10FEC80020636F6D2061206D656D6F7269612053CD
:10FED80052414D2121210A004F2073697374656DC9
:10FEE80061206964656E74696669636F7520612055
:10FEF8006D656D6F726961205352414D2121210A50
:10FF080000416C746572616E646F206F20656E6469
:10FF1800657265E76F20706172613A20307831321E
:10FF28003334353637380A004F20706F6E74656980
:10FF3800726F20656E636F6E747261646F20666F96
:10FF4800693A203078256C580A004F20706F6E741B
:10FF58006569726F20656E636F6E747261646F207D
:10FF6800666F693A20256C750A005665726966697C
:10FF780063616E646F206F206E6F766F20706F6E96
:10FF8800746569726F0A00693263206469727479F2
:10FF9800206F6E20666972737420636865636B0AEC
:10FFA80000496E697420693263206275735F7265F7
:10FFB8007365743A2025690A004C65697475726125
:10FFC800206465206275666665723A2025730A00AA
:10FFD80053697374656D6120496E69636961646F03
:10FFE8000A0046696D20646F2070726F6772616DD8
:07FFF80061006C6C73000056
:020000040020DA
:08000000FFFFFFFFFFFFFFFF00
:020000040030CA
:0E000000FF281F3CFFBF85FF0FC00FE00F4021
:00000001FF
