:0400000026EF00F0F7
:100008005782FACF03F0FBCF04F0F2AC0EEF00F00A
:1000180010EF00F020EF00F09DA015EF00F017EFB3
:1000280000F020EF00F09EA01CEF00F01EEF00F0A3
:1000380020EF00F059EC0FF004C0FBFF03C0FAFFFB
:100048005792110090EF0EF037C0D9FF38C0DAFF91
:10005800DECFF6FFDDCFF7FFF86A0800F550250A76
:10006800D8A439EF00F03BEF00F040EF02F037C0C2
:10007800D9FF38C0DAFFDE2A000EDD22000E0001AB
:100088009F6F000E9E6F9EC0A6F05368546837C0DD
:10009800D9FF38C0DAFFDECF46F0DDCF47F046C0E3
:1000A800F6FF47C0F7FFF86A0800F5CF45F069EF9B
:1000B80000F0464A472A8AEF00F0690E456E8AEF3B
:1000C80000F0000E456E8AEF00F045503B6E3C6A2A
:1000D8003C50000AD8B473EF00F065EF00F03B50D5
:1000E800580AD8B461EF00F03C0AD8B461EF00F0C8
:1000F8000D0AD8B461EF00F0050AD8B45DEF00F03E
:10010800190AD8B461EF00F065EF00F046C0F6FFB9
:1001180047C0F7FFF86A0800F550640AD8B497EFAB
:1001280000F099EF00F0DFEF00F046C0F6FF47C09F
:10013800F7FFF86A0800F550690AD8A4A6EF00F09E
:10014800A8EF00F012EF01F0DFEF00F039C0D9FF9F
:100158003AC0DAFFDFCF3BF0020EDE26DFCF3CF0FD
:10016800000EDD223BC0D9FF3CC0DAFFDECF41F0F4
:10017800DDCF42F0000E42BEFF0E436E446EF4EF38
:1001880000F039C0D9FF3AC0DAFFDFCF3BF0040EE8
:10019800DE26DFCF3CF0000EDD223BC0D9FF3CC09D
:1001A800DAFFDECF41F0DECF42F0DECF43F0DECF24
:1001B80044F0F4EF00F045503B6E3C6A3C50000AB6
:1001C800D8B4E9EF00F0F4EF00F03B50690AD8B476
:1001D800AAEF00F0050AD8B4C5EF00F0F4EF00F07C
:1001E800010E46243B6E000E47203C6E37C0D9FFF7
:1001F80038C0DAFF3BC0DEFF3CC0DDFF35C022F06F
:1002080036C023F041C024F042C025F043C026F098
:1002180044C027F06CEC03F055EF02F046C0F6FF3F
:1002280047C0F7FFF86A0800F550580AD8B41FEF1E
:1002380001F021EF01F068EF01F046C0F6FF47C07A
:10024800F7FFF86A0800F550750AD8A42EEF01F0F8
:1002580030EF01F0C8EF01F068EF01F039C0D9FFC5
:100268003AC0DAFFDFCF3BF0020EDE26DFCF3CF0EC
:10027800000EDD223BC0D9FF3CC0DAFFDECF3DF0E7
:10028800DDCF3EF03DC041F03EC042F0436A446AD3
:100298007DEF01F039C0D9FF3AC0DAFFDFCF3BF07C
:1002A800040EDE26DFCF3CF0000EDD223BC0D9FF76
:1002B8003CC0DAFFDECF41F0DECF42F0DECF43F0C4
:1002C800DECF44F07DEF01F045503B6E3C6A3C5078
:1002D800000AD8B472EF01F07DEF01F03B50690AD3
:1002E800D8B432EF01F0050AD8B44EEF01F07DEF33
:1002F80001F0010E46243B6E000E47203C6E37C0CD
:10030800D9FF38C0DAFF3BC0DEFF3CC0DDFFADEFF0
:1003180001F035C022F036C023F041C024F042C0BD
:1003280025F043C026F044C027F0D5EC07F055EF80
:1003380002F035C022F036C023F041C024F042C09C
:1003480025F043C026F044C027F0A7EC06F055EF8F
:1003580002F046C0F6FF47C0F7FFF86A0800F550FC
:100368003B6E3C6A3C50000AD8B4BDEF01F0C8EFC0
:1003780001F03B50580AD8B49DEF01F02D0AD8B4CB
:100388008DEF01F0C8EF01F037C0D9FF38C0DAFFB0
:10039800DECFF6FFDDCFF7FFF86A0800F550730AE5
:1003A800D8B4D9EF01F0DBEF01F0F6EF01F037C078
:1003B800D9FF38C0DAFFDECF05F0DDCF06F0FA0E40
:1003C800076EFF0E086E000E0A6E030E096E5FECD4
:1003D80009F005500610D8A4F4EF01F0F6EF01F08B
:1003E80037EF02F037C0D9FF38C0DAFFDECFF6FFAB
:1003F800DDCFF7FFF86A0800F550730AD8B407EFA5
:1004080002F009EF02F00FEF02F0000E406E030E4B
:100418003F6E13EF02F0000E406E010E3F6E37C0C4
:10042800D9FF38C0DAFF3F50DE264050DD2235C004
:1004380010F036C011F039C0D9FF3AC0DAFFDFCF6B
:100448003BF0020EDE26DFCF3CF0000EDD223BC083
:10045800D9FF3CC0DAFFDECF12F0DDCF13F043EC5A
:1004680007F055EF02F037C0D9FF38C0DAFFDE2AAF
:10047800000EDD2255EF02F037C0D9FF38C0DAFF91
:10048800DECFF6FFDDCFF7FFF86A0800F550076EFC
:10049800086A35C009F036C00AF03BEC0AF037EFBD
:1004A80002F0120020EEE5F010EED6F00A0EDBCFD7
:1004B800E3FFE806FCE221EE00F0FD0EDE6AE80646
:1004C800FDE2000E0001E26F000E526E000EE16FB9
:1004D80012EC10F08B80BC0E056E200E066E72ECCE
:1004E80010F0D09CF28EF28C000E0301006F000E0B
:1004F800016F000E026F000E036FFFEC0FF0D80EB5
:100508000001CC6FFF0ECD6FECEC0FF08AEC10F011
:10051800800E126E1A0E136E060E146E000E156EF5
:10052800E1EC0DF005EC0BF005C0E3F006C0E4F0DB
:10053800A90E0001CC6FFF0ECD6FE3C0CEF0E4C072
:10054800CFF0ECEC0FF0DE0EA0EC0AF00D500E1020
:10055800D8A4B1EF02F0B3EF02F0BCEF02F0E00E66
:100568000001CC6FFE0ECD6FECEC0FF0C3EF02F084
:10057800B70E0001CC6FFE0ECD6FECEC0FF08B0EBA
:100588000001CC6FFE0ECD6FECEC0FF0000E1E6E6E
:10059800030E1F6E77EC0FF0520E0001CC6FFF0EAA
:1005A800CD6F00C3CEF001C3CFF002C3D0F003C3B8
:1005B800D1F0ECEC0FF0090E0001CC6FFF0ECD6FFF
:1005C800ECEC0FF0780E0301006F560E016F340E3D
:1005D800026F120E036F00C31CF001C31DF002C3AB
:1005E8001EF003C31FF0B5EC0EF0720E0001CC6FC5
:1005F800FF0ECD6FECEC0FF0000E1E6E030E1F6E9B
:1006080077EC0FF0300E0001CC6FFF0ECD6F00C3FA
:10061800CEF001C3CFF002C3D0F003C3D1F0ECECAD
:100628000FF08FEC10F094889496949A55EC10F093
:10063800000E62EC0BF050EC04F00001E26F300E9B
:10064800CC6FFE0ECD6F84C0CEF0CF6B85C0D0F0DE
:1006580086C0D1F087C0D2F088C0D3F089C0D4F06A
:10066800D56BECEC0FF0D60E0B6E000E0C6E000E78
:100678000E6E090E0D6E000E106E000E0F6E11EC50
:100688000EF00001E26F000E0B6E010E0C6E000EF4
:100698000E6E190E0D6E000E106E000E0F6EF5EC3C
:1006A8000CF00001E26FC10ECC6FFF0ECD6F000E93
:1006B800CE6F010ECF6FECEC0FF0EA0E0001CC6F9D
:1006C800FF0ECD6FECEC0FF068EF03F026EF00F0B3
:1006D80027BE71EF03F074EF03F0010E75EF03F01E
:1006E800000E2E6E2E50D8B47CEF03F07EEF03F090
:1006F80086EF03F0271E261E251E246C000E2522D9
:100708002622272254BE8DEF03F08BEF03F093EFE0
:1007180003F0000E2B6E010E2A6E97EF03F053C004
:100728002AF054C02BF09EC02CF09FC02DF02E5004
:10073800D8B4A1EF03F0A3EF03F0BAEF03F02C064F
:10074800D8A02D062E50D8A4ACEF03F0AEEF03F0DE
:10075800B4EF03F0000E296E2B0E286EB8EF03F0ED
:10076800000E296E2D0E286E28C02EF0000E306E59
:100778001F0E2F6E000E0001CB6F07EF04F02F063F
:10078800D8A03006AC0E2F24D96E000E3020DA6EB9
:1007980024C005F025C006F026C007F027C008F0E1
:1007A8000A0E096E000E0A6E000E0B6E000E0C6E1D
:1007B800E9EC08F005C00FF006C010F0FBEC0EF0F5
:1007C8000F50300FDF6E2A06D8A02B062C06D8A0B3
:1007D8002D0624C005F025C006F026C007F027C066
:1007E80008F00A0E096E000E0A6E000E0B6E000E5F
:1007F8000C6E63EC08F005C024F006C025F007C0B5
:1008080026F008C027F030BE12EF04F0305008E19F
:100818002F04D8A012EF04F014EF04F02CEF04F02A
:100828002450251026102710D8A41DEF04F01FEF20
:1008380004F0C3EF03F02BBE2CEF04F02B5006E1BD
:100848002A04D8B02AEF04F02CEF04F0C3EF03F029
:100858002E50D8B432EF04F034EF04F03FEF04F038
:100868002F06D8A03006AC0E2F24D96E000E3020EB
:10087800DA6E2EC0DFFF22C017F023C018F0AC0ECE
:100888002F24196E000E30201A6E2CC01BF02DC0BC
:100898001CF035EC0DF012008B808B941A0E076E4D
:1008A800F80EE82EFED7072EFCD700D08B841A0E40
:1008B800076EF80EE82EFED7072EFCD700D08B90D7
:1008C8009F0E1FEC10F0A50E1FEC10F00A6EA50E7F
:1008D8001FEC10F0096E8B8037EC10F00B6E1F0EBA
:1008E8000A18D8A47AEF04F07CEF04F031EF05F091
:1008F80008EF05F0020E0001846F040E886F000EE9
:10090800876F0BA08AEF04F08CEF04F094EF04F0EB
:10091800000E896F010E866F000E856F2EEF05F0B1
:10092800090E896F010E866F080E856F2EEF05F090
:10093800040E0001846F080E886F000E876F0BA0ED
:10094800A8EF04F0AAEF04F094EF04F08CEF04F0A1
:10095800080E0001846F100E886F000E876F0BA0C1
:10096800B8EF04F0BAEF04F094EF04F08CEF04F061
:10097800100E0001846F100E886F000E876F0BA099
:10098800C8EF04F0CAEF04F0D2EF04F0000E896F4C
:10099800020E866F000E856F2EEF05F00A0E896F26
:1009A800020E866F100E856F2EEF05F0200E0001E7
:1009B800846F200E886F000E876F0BA0E6EF04F09F
:1009C800E8EF04F0D2EF04F0CAEF04F0400E0001A3
:1009D800846F200E886F000E876F0BA0F6EF04F06F
:1009E800F8EF04F000EF05F0000E896F040E866F33
:1009F800000E856F2EEF05F00B0E896F040E866FC3
:100A0800200E856F2EEF05F009501F0B076E086A40
:100A18000850000AD8B413EF05F02EEF05F0075080
:100A2800030AD8B47EEF04F0070AD8B49CEF04F0A8
:100A3800010AD8B4ACEF04F0030AD8B4BCEF04F050
:100A4800010AD8B4DAEF04F00F0AD8B4EAEF04F0D8
:100A58002EEF05F0000E32EF05F0010E1200186EB1
:100A680055A039EF05F03BEF05F041EF05F0FF0E1B
:100A78000B6E9C0E0A6E09EF06F05FEC0CF0055049
:100A88000610D8B44AEF05F04CEF05F053EF05F027
:100A98005580FF0E0B6E9A0E0A6E09EF06F018C00D
:100AA80019F01950BAEC0BF005C01CF006C01DF087
:100AB800FA0E1C1806E11D28D8A465EF05F067EFAB
:100AC80005F070EF05F072EC0DF05580FF0E0B6E1F
:100AD800990E0A6E09EF06F01DBE77EF05F075EF67
:100AE80005F07BEF05F072EC0DF04CEF05F00B50C4
:100AF800BAEC0BF005500610D8B485EF05F087EF77
:100B080005F089EF05F077EF05F00A50BAEC0BF025
:100B180005500610D8B493EF05F095EF05F097EF60
:100B280005F077EF05F0AAEC0DF005500610D8B4E3
:100B3800A0EF05F0A2EF05F0A4EF05F077EF05F0C0
:100B48001828196E1950BAEC0BF005500610D8B4D5
:100B5800B0EF05F0B2EF05F0B4EF05F077EF05F070
:100B6800000E1B6E000E1A6EEDEF05F0FF0E10243E
:100B7800166EFF0E1120176E1A50161807E11B503B
:100B88001718D8A4CAEF05F0CCEF05F0D5EF05F09B
:100B9800010ED4EC09F005C01CF006C01DF0DCEF16
:100BA80005F0000ED4EC09F005C01CF006C01DF0DD
:100BB8001DBEE1EF05F0E3EF05F077EF05F01A5001
:100BC8000E24D96E1B500F20DA6E1CC0DFFF1A4AA4
:100BD8001B2A10501A5C11501B58D8A0F6EF05F0CC
:100BE800F8EF05F0BAEF05F072EC0DF005500610BD
:100BF800D8B401EF06F003EF06F005EF06F04CEF6E
:100C080005F0000E0B6E000E0A6E1200166E55A04F
:100C180010EF06F012EF06F018EF06F0FF0E0B6E5D
:100C28009C0E0A6EA6EF06F05FEC0CF0055006105D
:100C3800D8B421EF06F023EF06F02AEF06F055802E
:100C4800FF0E0B6E9A0E0A6EA6EF06F016C017F08E
:100C58001750BAEC0BF005C018F006C019F0FA0EE0
:100C6800181806E11928D8A43CEF06F03EEF06F064
:100C780047EF06F072EC0DF05580FF0E0B6E990EE3
:100C88000A6EA6EF06F019BE4EEF06F04CEF06F01E
:100C980052EF06F072EC0DF023EF06F00B50BAECB1
:100CA8000BF005500610D8B45CEF06F05EEF06F0C6
:100CB80060EF06F04EEF06F00A50BAEC0BF0055064
:100CC8000610D8B46AEF06F06CEF06F06EEF06F087
:100CD8004EEF06F0000E1B6E000E1A6E8AEF06F03D
:100CE8001A500E24D96E1B500F20DA6EDF50BAEC62
:100CF8000BF005500610D8B484EF06F086EF06F026
:100D080088EF06F04EEF06F01A4A1B2A10501A5CBC
:100D180011501B58D8A093EF06F095EF06F074EF2A
:100D280006F072EC0DF005500610D8B49EEF06F0F0
:100D3800A0EF06F0A2EF06F023EF06F0000E0B6E10
:100D4800000E0A6E120054BEAEEF06F0ACEF06F0CD
:100D5800B4EF06F0000E316E010E306EB8EF06F0FB
:100D680053C030F054C031F09EC02CF09FC02DF01D
:100D7800000E336E1F0E326E000E0001CB6F0CEFAB
:100D880007F03206D8A0330624500F0B346E090E34
:100D98003464D1EF06F0D3EF06F0DBEF06F0370E40
:100DA80034242E6E2F6A000E2F22E1EF06F0300E4B
:100DB80034242E6E2F6A000E2F222EC034F0AC0E73
:100DC8003224D96E000E3320DA6E34C0DFFF3006CD
:100DD800D8A031062C06D8A02D0624C028F025C09E
:100DE80029F026C02AF027C02BF0050E01EF07F0E6
:100DF800D8902B322A3229322832E82EFCEF06F01E
:100E080028C024F029C025F02AC026F02BC027F0DE
:100E180033BE18EF07F0335009E1020E325CD8A058
:100E280018EF07F01AEF07F032EF07F024502510FB
:100E380026102710D8A423EF07F025EF07F0C5EFF9
:100E480006F031BE32EF07F0315006E13004D8B079
:100E580030EF07F032EF07F0C5EF06F022C017F0C9
:100E680023C018F0AC0E3224196E000E33201A6E0F
:100E78002CC01BF02DC01CF035EC0DF0120020EE3C
:100E8800F0F010EE15F0060EDBCFE3FFE806FCE20B
:100E980012C020F013C021F020502110D8A457EF21
:100EA80007F059EF07F05DEF07F0150E206E000E02
:100EB800216E20C005F021C006F093EC0FF005C0AC
:100EC80022F006C023F053C024F054C025F025BEFC
:100ED80070EF07F072EF07F087EF07F02250245CFD
:100EE8002550800A146E2350800A1458D8A07FEF2A
:100EF80007F081EF07F083EF07F087EF07F024C0D2
:100F080022F025C023F022C024F023C025F09EC083
:100F18001CF09FC01DF09DEF07F0000E086E200E1C
:100F2800076E10C009F011C00AF03BEC0AF0224A23
:100F3800232A1C50225C2350800A146E1D50800AFC
:100F48001458D8A0AAEF07F0ACEF07F091EF07F01C
:100F5800000E1F6E000E1E6EC5EF07F020C0D9FFF1
:100F680021C0DAFFDF50146E1450076E086A10C0F3
:100F780009F011C00AF03BEC0AF0204A212A1E4A67
:100F88001F2A24501E5C1F50800A146E2550800AA8
:100F98001458D8A0D2EF07F0D4EF07F0B2EF07F05B
:100FA800120054BEDCEF07F0DAEF07F0E2EF07F0CB
:100FB800000E2B6E010E2A6EE6EF07F053C02AF0E2
:100FC80054C02BF09EC028F09FC029F0000E2D6E53
:100FD8001F0E2C6E000E0001CB6F31EF08F02C06AF
:100FE800D8A02D06AC0E2C24D96E000E2D20DA6E5A
:100FF80024C005F025C006F026C007F027C008F079
:101008000A0E096E000E0A6E000E0B6E000E0C6EB4
:10101800B1EC0CF00550300FDF6E2A06D8A02B0675
:101028002806D8A0290624C005F025C006F026C049
:1010380007F027C008F00A0E096E000E0A6E000EAF
:101048000B6E000E0C6E0DEC0CF005C024F006C003
:1010580025F007C026F008C027F02C502D10D8B472
:1010680038EF08F03AEF08F052EF08F02450251056
:1010780026102710D8A443EF08F045EF08F0F3EF47
:1010880007F02BBE52EF08F02B5006E12A04D8B027
:1010980050EF08F052EF08F0F3EF07F022C017F016
:1010A80023C018F0AC0E2C24196E000E2D201A6ED9
:1010B80028C01BF029C01CF035EC0DF01200000E02
:1010C8000E6E0CBE6CEF08F06AEF08F076EF08F0D1
:1010D8000C1E0B1E0A1E096C000E0A220B220C2283
:1010E800010E0E6E08BE7DEF08F07BEF08F087EF6B
:1010F80008F0081E071E061E056C000E06220722B1
:101108000822010E0E1A000E0F6E000E106E000E51
:10111800116E000E126E09500A100B100C10D8B484
:1011280098EF08F09AEF08F0D0EF08F0010E0D6E76
:10113800A4EF08F0D89009360A360B360C360D2A7B
:101148000CAEA9EF08F0ABEF08F09EEF08F0D890CE
:101158000F361036113612360950055C0A500658FB
:101168000B5007580C500858D8A0BDEF08F0BFEF37
:1011780008F0C8EF08F00950055E0A50065A0B50EF
:10118800075A0C50085A0F80D8900C320B320A328A
:1011980009320D2EABEF08F00E50D8B4D6EF08F098
:1011A800D8EF08F0E0EF08F0121E111E101E0F6CA9
:1011B800000E1022112212220FC005F010C006F0F6
:1011C80011C007F012C008F01200000E0E6E08BE23
:1011D800F2EF08F0F0EF08F0FCEF08F0081E071E29
:1011E800061E056C000E062207220822010E0E6E4E
:1011F8000CBE03EF09F001EF09F00BEF09F00C1E2C
:101208000B1E0A1E096C000E0A220B220C22095022
:101218000A100B100C10D8B414EF09F016EF09F0EF
:1012280046EF09F0010E0D6E20EF09F0D89009364F
:101238000A360B360C360D2A0CAE25EF09F027EFCF
:1012480009F01AEF09F00950055C0A5006580B50CE
:1012580007580C500858D8A034EF09F036EF09F0B9
:101268003EEF09F00950055E0A50065A0B50075A1E
:101278000C50085AD8900C320B320A3209320D2E13
:1012880027EF09F00E50D8B44CEF09F04EEF09F0F3
:1012980056EF09F0081E071E061E056C000E0622F2
:1012A8000722082205C005F006C006F007C007F0AF
:1012B80008C008F0120005C00CF006C00DF007C009
:1012C8000EF008C00FF00906D8A00A06092806E1A2
:1012D8000A28D8A472EF09F074EF09F081EF09F039
:1012E800000E066E000E056ED3EF09F00C4A0D2AAB
:1012F8000E4A0F2A0906D8A00A060CC0F6FF0DC030
:10130800F7FFF86A0800F5500009D8B48EEF09F025
:1013180090EF09F0BFEF09F00EC0F6FF0FC0F7FF1E
:10132800F86A0800F5500009D8B49DEF09F09FEF5E
:1013380009F0BFEF09F009500A10D8B4A6EF09F078
:10134800A8EF09F0BFEF09F00CC0F6FF0DC0F7FFDA
:10135800F86A0800F5CF0BF00EC0F6FF0FC0F7FFD4
:10136800F86A0800F5500B18D8B4BDEF09F0BFEFC4
:1013780009F07AEF09F00CC0F6FF0DC0F7FFF86A24
:101388000800F5CF0BF00EC0F6FF0FC0F7FFF86AA4
:101398000800F5500B5C056E066AD8A00606120018
:1013A800076E0704D8A4DBEF09F0DDEF09F0E0EFE2
:1013B80009F0C58AE1EF09F0C59AC586000E096EE5
:1013C800000E086EFEEF09F0084A092A09BEF6EF7A
:1013D80009F0410E085C1F0E0958D8A0F6EF09F075
:1013E800F8EF09F0FEEF09F0FF0E066EF60E056E37
:1013F8003AEF0AF0C7A003EF0AF005EF0AF0E8EFAA
:1014080009F0C588000E096E000E086E22EF0AF07A
:10141800084A092A09BE1AEF0AF0E90E085C030E09
:101428000958D8A01AEF0AF01CEF0AF022EF0AF0C8
:10143800FF0E066EFE0E056E3AEF0AF0C5B827EFEE
:101448000AF029EF0AF00CEF0AF0C6AC2EEF0AF00A
:1014580030EF0AF037EF0AF0C69CFF0E066EF70E63
:10146800056E3AEF0AF0C9CF05F0066A1200095076
:101478000A10D8B442EF0AF044EF0AF04DEF0AF030
:1014880009500A10D8A44BEF0AF04DEF0AF052EFBA
:101498000AF007506DEC10F09FEF0AF020EE0AF00A
:1014A8000950D9260A50DA22DE50DE10D8B45FEF90
:1014B8000AF061EF0AF07CEF0AF020EE0AF009501A
:1014C800D9260A50DA2210EE03F00950E1260A5014
:1014D800E222DE50E65CE650800A0F6EDE50800A9B
:1014E8000F58D8B07AEF0AF07CEF0AF09FEF0AF0B5
:1014F80020EE03F00950D9260A50DA22DECF0BF08D
:10150800DDCF0CF009C0D9FF0AC0DAFFDECF0DF03D
:10151800DDCF0EF00B500D24D96E0C500E20DA6E74
:1015280007C0DFFF20EE03F00950D9260A50DA225F
:10153800DE2A000EDD2212000F6E0FC010F055A03B
:10154800A8EF0AF0AAEF0AF0BEEF0AF086EC10F056
:101558003BEC0FF009500A10D8A4B5EF0AF0B7EF2A
:101568000AF0BAEF0AF05590BEEF0AF00D680E685F
:1015780004EF0BF05FEC0CF005500610D8A4C7EF91
:101588000AF0C9EF0AF001EF0BF01050BAEC0BF0BB
:1015980005C011F006C012F072EC0DF005500610EF
:1015A800D8A4D9EF0AF0DBEF0AF001EF0BF01150E5
:1015B8001210D8A4E2EF0AF0E4EF0AF0EAEF0AF01A
:1015C800000E0E6E000E0D6E04EF0BF0FA0E1118E1
:1015D80006E11228D8A4F3EF0AF0F5EF0AF0FBEFC2
:1015E8000AF0FF0E0E6E990E0D6E04EF0BF0FF0E53
:1015F8000E6E9A0E0D6E04EF0BF05580FBEF0AF09D
:10160800120094869488060EE82EFED700D082B683
:1016180010EF0BF012EF0BF018EF0BF0FF0E066E49
:10162800FE0E056E61EF0BF0000E086E0A0E076ED7
:10163800949631EF0BF082A824EF0BF026EF0BF015
:1016480028EF0BF03EEF0BF08B9600D000D08B8686
:1016580000D000D00706D8A0080608BE3EEF0BF061
:10166800085006E10704D8B03CEF0BF03EEF0BF052
:101678001FEF0BF09486948882B845EF0BF047EF84
:101688000BF054EF0BF082B64CEF0BF04EEF0BF073
:1016980054EF0BF0FF0E066EFD0E056E61EF0BF0BA
:1016A80094988B9800D000D08B8800D000D0948676
:1016B8009488000E066E000E056E1200066EC6BAFD
:1016C80068EF0BF06AEF0BF0B9EF0BF00650040D62
:1016D800010EF326000EF422290EF324F66EFE0EF8
:1016E800F420F76EF86A000EF8220800F5CFC7FF5D
:1016F8000650040D290EF324F66EFE0EF420F76E44
:10170800F86A000EF8220800F5CFC6FF000EC56E75
:101718000650040D020EF326000EF422290EF324BF
:10172800F66EFE0EF420F76EF86A000EF822080036
:10173800F5CFC8FF0650040D030EF326000EF42261
:10174800290EF324F66EFE0EF420F76EF86A000EEA
:10175800F8220800F5CF05F00546054605469450E1
:101768000518F70B0518946EC68A1200076EC7A4F1
:10177800C0EF0BF0C2EF0BF0C8EF0BF0FF0E066ED8
:10178800F90E056E0CEF0CF007C0C9FF000E096ECC
:10179800000E086EE6EF0BF0084A092A09BEDEEFD4
:1017A8000BF0810E085C3E0E0958D8A0DEEF0BF056
:1017B800E0EF0BF0E6EF0BF0FF0E066EFE0E056E87
:1017C8000CEF0CF0C7B0EBEF0BF0EDEF0BF0D0EF38
:1017D8000BF0A1A6F2EF0BF0F4EF0BF0FBEF0BF020
:1017E800A196FF0E066EFC0E056E0CEF0CF0C5AC54
:1017F80000EF0CF002EF0CF008EF0CF0FF0E066E95
:10180800FA0E056E0CEF0CF0000E066E000E056E5B
:101818001200000E0D6E000E0E6E000E0F6E000E02
:10182800106E09500A100B100C10D8B41EEF0CF0F3
:1018380020EF0CF056EF0CF0010E116E2AEF0CF0B1
:10184800D89009360A360B360C36112A0CAE2FEF13
:101858000CF031EF0CF024EF0CF0D8900D360E366A
:101868000F3610360950055C0A5006580B500758B9
:101878000C500858D8A043EF0CF045EF0CF04EEF91
:101888000CF00950055E0A50065A0B50075A0C50C6
:10189800085A0D80D8900C320B320A320932112EB8
:1018A80031EF0CF00DC005F00EC006F00FC007F0C8
:1018B80010C008F01200C58000F0A1A666EF0CF079
:1018C80068EF0CF070EF0CF0C590A196FF0E066E55
:1018D800FC0E056EB0EF0CF0C6AE75EF0CF077EFAE
:1018E8000CF07FEF0CF0C590C69EFF0E066EFB0E47
:1018F800056EB0EF0CF0000E086E000E076E9BEF41
:101908000CF0074A082A08BE93EF0CF0E90E075CB2
:10191800030E0858D8A093EF0CF095EF0CF09BEF4E
:101928000CF0FF0E066E9B0E056EB0EF0CF0C5B006
:10193800A0EF0CF0A2EF0CF085EF0CF0A1A6A7EF3A
:101948000CF0A9EF0CF0ACEF0CF0A1966AEF0CF0DC
:10195800000E066E000E056E120009500A100B10DC
:101968000C10D8B4BAEF0CF0BCEF0CF0ECEF0CF0A4
:10197800010E0D6EC6EF0CF0D89009360A360B36FC
:101988000C360D2A0CAECBEF0CF0CDEF0CF0C0EFFF
:101998000CF00950055C0A5006580B5007580C50BB
:1019A8000858D8A0DAEF0CF0DCEF0CF0E4EF0CF0FC
:1019B8000950055E0A50065A0B50075A0C50085A2F
:1019C800D8900C320B320A3209320D2ECDEF0CF0C2
:1019D80005C005F006C006F007C007F008C008F00B
:1019E800120089C011F00FC012F010C013F0112AB4
:1019F80001EF0DF0D89012361336112EFEEF0CF0D1
:101A080012C00FF013C010F00D500001855D0E508C
:101A18008659D8B012EF0DF014EF0DF018EF0DF055
:101A280085C00DF086C00EF08B900B0E1FEC10F0E9
:101A38000F501FEC10F010501FEC10F00F501FEC5F
:101A480010F0000E1FEC10F00BC005F00CC006F0F3
:101A58000DC007F00EC008F03EEC0EF08B80000EB3
:101A680012001CBE3AEF0DF03CEF0DF042EF0DF006
:101A78001BC020F01CC021F046EF0DF0000E216EB7
:101A8800000E206E000E1F6E000E1E6E58EF0DF039
:101A9800000E086E200E076E17C009F018C00AF075
:101AA8003BEC0AF01E4A1F2A20501E5C1F50800A79
:101AB8001D6E2150800A1D58D8A065EF0DF067EF04
:101AC8000DF04CEF0DF019C010F01AC011F017C04E
:101AD80012F018C013F0D9EC0EF01200C58400F013
:101AE800A1A679EF0DF07BEF0DF082EF0DF0A19636
:101AF800FF0E066EFC0E056EA9EF0DF0000E086EC7
:101B0800000E076E9EEF0DF0074A082A08BE96EFF2
:101B18000DF0E90E075C030E0858D8A096EF0DF0FB
:101B280098EF0DF09EEF0DF0FF0E066EFE0E056E9F
:101B3800A9EF0DF0C5B4A3EF0DF0A5EF0DF088EFF8
:101B48000DF0000E066E000E056E1200C582000E26
:101B5800086E000E076EC7EF0DF0074A082A08BE88
:101B6800BFEF0DF0E90E075C030E0858D8A0BFEFD1
:101B78000DF0C1EF0DF0C7EF0DF0FF0E066EFE0E73
:101B8800056EE0EF0DF0C5B2CCEF0DF0CEEF0DF025
:101B9800B1EF0DF0A1A6D3EF0DF0D5EF0DF0DCEF0E
:101BA8000DF0A196FF0E066EFC0E056EE0EF0DF02F
:101BB800000E066E000E056E12003F0EC716000ED0
:101BC800C56E800E12180BE11A0E131808E1060EE6
:101BD80014181510D8A4F3EF0DF0F5EF0DF0F8EF89
:101BE8000DF0C750F9EF0DF0C78E080EC66E000E47
:101BF800056E090E066E3D0E076E000E086E12C0C9
:101C080009F013C00AF014C00BF015C00CF00DEC6D
:101C18000CF00504C86EC68A120089C011F00FC006
:101C280012F010C013F0112A1DEF0EF0D8901236E2
:101C38001336112E1AEF0EF012C00FF013C010F069
:101C48008B90820E1FEC10F00F501FEC10F010500C
:101C58001FEC10F00F501FEC10F00BC005F00CC07B
:101C680006F00DC007F00EC008F03EEC0EF08B80B9
:101C7800000E120005C009F006C00AF05AEF0EF077
:101C880009C0D9FF0AC0DAFFDF50C96E9EA64FEF20
:101C98000EF051EF0EF04AEF0EF09E9609C0D9FFF4
:101CA8000AC0DAFFC9CFDFFF094A0A2A0706D8A007
:101CB8000806072806E10828D8A465EF0EF067EFA4
:101CC8000EF044EF0EF012004AC04EF04BC04FF039
:101CD8007CEF0EF048C035F049C036F04E0E376E36
:101CE800000E386E4CC039F04DC03AF028EC00F0C8
:101CF8004EC0F6FF4FC0F7FFF86A0800F55000091C
:101D0800D8A489EF0EF08BEF0EF06EEF0EF0000EF8
:101D1800496E000E486E1200980EF66E200EF76E91
:101D2800000EF86E00EEE5F010EE12F00900F5CFA7
:101D3800EEFFE550E150FAE102EE00F0FE0EEE6A29
:101D4800E806FDE100EE60F06C0EEE6AE806FDE1E3
:101D5800566A556A546A536A57905792000156EF6B
:101D680002F01CC020F01DC021F01EC022F01FC0D0
:101D780023F0000E0B6E200E0A6E000E0D6E010E83
:101D88000C6E200E0E6E000E0F6E000E116E040EFD
:101D9800106E000E126E000E136E000E146E000E02
:101DA800156EDE0E0AEC06F01200000E166E000E1E
:101DB800156EEAEF0EF014C007F0086A12C009F0B9
:101DC80013C00AF03BEC0AF0154A162A15501024E5
:101DD800D96E16501120DA6EDF50146E1450D8A444
:101DE800F8EF0EF0FAEF0EF0DFEF0EF0120010BE73
:101DF80008EF0FF0105006E10F04D8B006EF0FF00F
:101E080008EF0FF016EF0FF00FC011F010C012F02E
:101E1800111E121E114A122A11C00FF012C010F022
:101E28001AEF0FF00FC00FF010C010F01200080EDC
:101E3800B86E900EAB6E240EAC6E220EAF6E000E16
:101E4800B06E000E056E000E066E7CEC10F0000EF3
:101E5800056E000E066E77EC10F0000E056E000E93
:101E6800066E81EC10F0000E0001AB6F1200C69AEE
:101E780005EC0BF005C00BF006C00CF00CBE4DEFE6
:101E88000FF00C5008E10B04D8A04DEF0FF04FEF06
:101E98000FF053EF0FF009680A6858EF0FF0C68A81
:101EA800000E0A6E000E096E12009E90A4C001F08A
:101EB800A5C002F0D8EC0FF00001F751F811D8B422
:101EC80068EF0FF06AEF0FF076EF0FF002D876EFB9
:101ED8000FF00500FA6EF751FD6EF851FE6EFF6ABD
:101EE800FA5012001200000E0B6E200E0A6E000E41
:101EF8000D6E010E0C6E200E0E6E000E0F6E000E93
:101F0800116E040E106E000E126E000E136E000E8F
:101F1800146E000E156EDE0E33EC05F0120005C0CF
:101F280007F006C008F09BEF0FF0054A062A05C027
:101F3800D9FF06C0DAFFDF50D8A4A5EF0FF0A7EF4E
:101F48000FF099EF0FF00750055C056E0850065822
:101F5800066E1200000ECC6EFC0ECF6E180ECE6E02
:101F6800CECFA4F0CFCFA5F09E909D80220E056E17
:101F7800210E066E72EC10F0270ECD6E1200000EC8
:101F8800896E000E8A6E010E8B6E926893689A0EA7
:101F9800946E000E0F013A6F3F0E396F2F0E386F97
:101FA800000E616EF18E1200CDA4DDEF0FF0DFEFB1
:101FB8000FF0E7EF0FF0CD900250CF6E01C0CEFFCB
:101FC800CD80EBEF0FF00250CF6E01C0CEFF1200B4
:101FD800CE0E506E000E516E000E486E000E496E09
:101FE800CCC04AF0CDC04BF0500E4C6E000E4D6E7A
:101FF80068EC0EF01200F29E8EC009F08FC00AF055
:1020080090C00BF091C00CF0F28E09C005F00AC028
:1020180006F00BC007F00CC008F012008DEC10F0B1
:1020280042EC10F0C3EC0FF066EC10F0AEEC0FF0E1
:102038001BEC0FF01200056E05C0C9FF9EA627EF26
:1020480010F029EF10F022EF10F09E96C950120000
:10205800056E9EA832EF10F034EF10F02DEF10F05F
:1020680005C0ADFF12008B90D70E1FEC10F0000ECC
:102078001FEC10F0066E8B8006501200000EC76E23
:10208800080EC66E000EC56E270EC86EC69A1200E0
:10209800000102030405060708090A286E756C6C1E
:1020A8002900400EC76E000EC66E270EC86E9496A5
:1020B800C69A1200010E00018E27000E8F2390236E
:1020C80091231200720ED36E040ED26E000E9B6E18
:1020D8001200066E06502CEC10F0120005C0F7F046
:1020E80006C0F8F0120005C0FBF006C0FCF01200B4
:1020F80005C0FDF006C0FEF0120005C0F9F006C0EC
:10210800FAF01200C596C69EA1961200948694888D
:0C2118001200D09E1200C69A12001200A5
:10FE080000000000000000000000000000000000EA
:10FE180000000000000000000000000000000000DA
:10FE280000004027000100004D656D6F7279204683
:10FE38006F756E642077697468204A454445434964
:10FE4800443A20546F74616C2073697A653A256965
:10FE58004D6269742C20506167652073697A653A30
:10FE680020256942797465732C204E2E20706167B5
:10FE780065733A2025692C2053686966743A2025F1
:10FE8800690A0056657269666963616E646F206FFE
:10FE980020706F6E746569726F20646520656E648A
:10FEA80065726563616D656E746F2E2E2E0A00484B
:10FEB8006120616C676F2064652065727261646F90
:10FEC80020636F6D2061206D656D6F7269612053CD
:10FED80052414D2121210A004F2073697374656DC9
:10FEE80061206964656E74696669636F7520612055
:10FEF8006D656D6F726961205352414D2121210A50
:10FF080000416C746572616E646F206F20656E6469
:10FF1800657265E76F20706172613A20307831321E
:10FF28003334353637380A004F20706F6E74656980
:10FF3800726F20656E636F6E747261646F20666F96
:10FF4800693A203078256C580A004F20706F6E741B
:10FF58006569726F20656E636F6E747261646F207D
:10FF6800666F693A20256C750A005665726966697C
:10FF780063616E646F206F206E6F766F20706F6E96
:10FF8800746569726F0A00693263206469727479F2
:10FF9800206F6E20666972737420636865636B0AEC
:10FFA80000496E697420693263206275735F7265F7
:10FFB8007365743A2025690A004C65697475726125
:10FFC800206465206275666665723A2025730A00AA
:10FFD80053697374656D6120496E69636961646F03
:10FFE8000A0046696D20646F2070726F6772616DD8
:07FFF80061006C6C73000056
:020000040020DA
:08000000FFFFFFFFFFFFFFFF00
:020000040030CA
:0E000000FF281F3CFFBF85FF0FC00FE00F4021
:00000001FF
