:0400000026EF00F0F7
:100008005B82FACF03F0FBCF04F0F2AC0EEF00F006
:1000180010EF00F020EF00F09DA015EF00F017EFB3
:1000280000F020EF00F09EA01CEF00F01EEF00F0A3
:1000380020EF00F05EEC0EF004C0FBFF03C0FAFFF7
:080048005B921100B9EF0DF00D
:1010000000000000000000000000000000000000E0
:1010100000000000000000000000000000000000D0
:101020000000402700010000486120616C676F20CC
:1010300064652065727261646F20636F6D2061204A
:101040006D656D6F726961205352414D2121210000
:101050004F2073697374656D61206964656E74698E
:101060006669636F752061206D656D6F72696120BF
:101070005352414D21212100693263206469727409
:1010800079206F6E20666972737420636865636B84
:101090000A00496E697420693263206275735F7259
:0B10A000657365743A2025690A0000A2
:1010AC0025BE5BEF08F05EEF08F0010E5FEF08F075
:1010BC00000E2C6E2C50D8B466EF08F068EF08F0D8
:1010CC006CEF08F0246C251ED8B0252A0001A1BFB6
:1010DC0074EF08F072EF08F07AEF08F0000E296E4A
:1010EC00010E286E7EEF08F0A0C028F0A1C029F0F8
:1010FC009EC02AF09FC02BF02C50D8B488EF08F07B
:10110C008AEF08F0A1EF08F02A06D8A02B062C5085
:10111C00D8A493EF08F095EF08F09BEF08F0000EC1
:10112C00276E2B0E266E9FEF08F0000E276E2D0EED
:10113C00266E26C02CF0000E2E6E1F0E2D6E000E8D
:10114C00CB6FD9EF08F02D06D8A02E06AC0E2D24AF
:10115C00D96E000E2E20DA6E24C005F025C006F0E4
:10116C00000E086E0A0E076E9DEC0BF005C00BF01E
:10117C0006C00CF000EC0EF00B50300FDF6E2806A2
:10118C00D8A029062A06D8A02B0624C005F025C015
:10119C0006F0000E086E0A0E076E80EC0AF005C011
:1011AC0024F006C025F02EBEE4EF08F02E5008E126
:1011BC002D04D8A0E4EF08F0E6EF08F0FCEF08F0FF
:1011CC0024502510D8A4EDEF08F0EFEF08F0A9EFAC
:1011DC0008F029BEFCEF08F0295006E12804D8B02D
:1011EC00FAEF08F0FCEF08F0A9EF08F02C50D8B497
:1011FC0002EF09F004EF09F00FEF09F02D06D8A06B
:10120C002E06AC0E2D24D96E000E2E20DA6E2CC0BC
:10121C00DFFF22C017F023C018F0AC0E2D24196E7E
:10122C00000E2E201A6E2AC01BF02BC01CF0ECEC0A
:10123C000CF0120031C0D9FF32C0DAFFDECFF6FF5E
:10124C00DDCFF7FFF86A0800F550250AD8A431EF76
:10125C0009F033EF09F0A0EF09F031C0D9FF32C02B
:10126C00DAFFDE2A000EDD22000E00019F6F000E59
:10127C009E6F9EC0A6F0A069A16931C0D9FF32C093
:10128C00DAFFDECF3BF0DDCF3CF03BC0F6FF3CC0DD
:10129C00F7FFF86A0800F550640AD8B458EF09F063
:1012AC005AEF09F069EF09F03BC0F6FF3CC0F7FFBD
:1012BC00F86A0800F550690AD8A467EF09F069EFDD
:1012CC0009F097EF09F033C0D9FF34C0DAFFDFCF54
:1012DC0035F0020EDE26DFCF36F0000EDD2235C0F3
:1012EC00D9FF36C0DAFFDECF37F0DDCF38F0010E94
:1012FC003B24356E000E3C20366E31C0D9FF32C017
:10130C00DAFF35C0DEFF36C0DDFF2FC022F030C063
:10131C0023F037C024F038C025F056EC08F0B5EFB8
:10132C0009F031C0D9FF32C0DAFFDE2A000EDD220F
:10133C00B5EF09F031C0D9FF32C0DAFFDECFF6FFCE
:10134C00DDCFF7FFF86A0800F550076E086A2FC06A
:10135C0009F030C00AF0B6EC09F097EF09F0120072
:10136C0009500A10D8B4BDEF09F0BFEF09F0C8EF6F
:10137C0009F009500A10D8A4C6EF09F0C8EF09F01B
:10138C00CDEF09F0075017EC0FF01AEF0AF020EE32
:10139C000AF00950D9260A50DA22DE50DE10D8B4F1
:1013AC00DAEF09F0DCEF09F0F7EF09F020EE0AF0C4
:1013BC000950D9260A50DA2210EE03F00950E12622
:1013CC000A50E222DE50E65CE650800A0F6EDE50D8
:1013DC00800A0F58D8B0F5EF09F0F7EF09F01AEFC3
:1013EC000AF020EE03F00950D9260A50DA22DECF9B
:1013FC000BF0DDCF0CF009C0D9FF0AC0DAFFDECF4D
:10140C000DF0DDCF0EF00B500D24D96E0C500E20CC
:10141C00DA6E07C0DFFF20EE03F00950D9260A5020
:10142C00DA22DE2A000EDD2212000F6E0FC010F041
:10143C0057A023EF0AF025EF0AF039EF0AF030EC51
:10144C000FF040EC0EF009500A10D8A430EF0AF05F
:10145C0032EF0AF035EF0AF0579039EF0AF00D68C9
:10146C000E687FEF0AF09AEC0CF005500610D8A429
:10147C0042EF0AF044EF0AF07CEF0AF01050F5EC62
:10148C000BF005C011F006C012F029EC0DF0055060
:10149C000610D8A454EF0AF056EF0AF07CEF0AF0CD
:1014AC0011501210D8A45DEF0AF05FEF0AF065EF4F
:1014BC000AF0000E0E6E000E0D6E7FEF0AF0FA0EA3
:1014CC00111806E11228D8A46EEF0AF070EF0AF09A
:1014DC0076EF0AF0FF0E0E6E990E0D6E7FEF0AF08E
:1014EC00FF0E0E6E9A0E0D6E7FEF0AF0578076EFA0
:1014FC000AF01200000E0A6E08BE89EF0AF087EFA0
:10150C000AF08FEF0AF0076C081ED8B0082A010EFB
:10151C000A6E06BE96EF0AF094EF0AF09CEF0AF002
:10152C00056C061ED8B0062A010E0A1A000E0C6EA7
:10153C00000E0B6E07500810D8B4A7EF0AF0A9EFF5
:10154C000AF0D1EF0AF0010E096EB1EF0AF0D89053
:10155C0007360836092A08AEB6EF0AF0B8EF0AF0DB
:10156C00ADEF0AF0D8900B360C360750055C0850DE
:10157C000658D8A0C4EF0AF0C6EF0AF0CBEF0AF079
:10158C000750055E0850065A0B80D8900832073277
:10159C00092EB8EF0AF00A50D8B4D7EF0AF0D9EFF9
:1015AC000AF0DDEF0AF00B6C0C1ED8B00C2A0BC045
:1015BC0005F00CC006F0120020EECCF010EE4BF053
:1015CC000A0EDBCFE3FFE806FCE221EE00F0FD0E95
:1015DC00DE6AE806FDE2000E566E000E0001DF6FBB
:1015EC00000EE06FE0EC0EF08B80040E056E1E0E0C
:1015FC00066E1CEC0FF0D09CF28EF28CCDEC0EF043
:10160C0034EC0FF0800E126E1A0E136E060E146E62
:10161C00000E156E61EC0DF040EC0BF005C0E1F026
:10162C0006C0E2F0920E456E100E466EE1C047F019
:10163C00E2C048F0BAEC0EF0DE0E1BEC0AF00D50D6
:10164C000E10D8A42CEF0BF02EEF0BF036EF0BF0A6
:10165C00500E456E100E466EBAEC0EF03CEF0BF0D1
:10166C00280E456E100E466EBAEC0EF03CEF0BF0E9
:10167C0026EF00F094869488060EE82EFED700D054
:10168C0082B64BEF0BF04DEF0BF053EF0BF0FF0E60
:10169C00066EFE0E056E9CEF0BF0000E086E0A0E29
:1016AC00076E94966CEF0BF082A85FEF0BF061EF76
:1016BC000BF063EF0BF079EF0BF08B9600D000D0B2
:1016CC008B8600D000D00706D8A0080608BE79EF9C
:1016DC000BF0085006E10704D8B077EF0BF079EF68
:1016EC000BF05AEF0BF09486948882B880EF0BF0D5
:1016FC0082EF0BF08FEF0BF082B687EF0BF089EFD8
:10170C000BF08FEF0BF0FF0E066EFD0E056E9CEFCF
:10171C000BF094988B9800D000D08B8800D000D020
:10172C0094869488000E066E000E056E1200000E54
:10173C000A6E06BEA6EF0BF0A4EF0BF0ACEF0BF0AD
:10174C00056C061ED8B0062A010E0A6E08BEB3EF51
:10175C000BF0B1EF0BF0B7EF0BF0076C081ED8B025
:10176C00082A07500810D8B4BEEF0BF0C0EF0BF0EE
:10177C00E4EF0BF0010E096EC8EF0BF0D8900736B2
:10178C000836092A08AECDEF0BF0CFEF0BF0C4EF03
:10179C000BF00750055C08500658D8A0D8EF0BF09A
:1017AC00DAEF0BF0DEEF0BF00750055E0850065A2F
:1017BC00D89008320732092ECFEF0BF00A50D8B46C
:1017CC00EAEF0BF0ECEF0BF0F0EF0BF0056C061EF4
:1017DC00D8B0062A05C005F006C006F01200076E48
:1017EC00C7A4FBEF0BF0FDEF0BF003EF0CF0FF0EBB
:1017FC00066EF90E056E47EF0CF007C0C9FF000E20
:10180C00096E000E086E21EF0CF0084A092A09BE79
:10181C0019EF0CF0810E085C3E0E0958D8A019EF98
:10182C000CF01BEF0CF021EF0CF0FF0E066EFE0E11
:10183C00056E47EF0CF0C7B026EF0CF028EF0CF05C
:10184C000BEF0CF0A1A62DEF0CF02FEF0CF036EFF8
:10185C000CF0A196FF0E066EFC0E056E47EF0CF019
:10186C00C5AC3BEF0CF03DEF0CF043EF0CF0FF0E72
:10187C00066EFA0E056E47EF0CF0000E066E000EAB
:10188C00056E1200000E0D6E000E0E6E000E0F6E29
:10189C00000E106E09500A100B100C10D8B459EF32
:1018AC000CF05BEF0CF091EF0CF0010E116E65EF8C
:1018BC000CF0D89009360A360B360C36112A0CAEC1
:1018CC006AEF0CF06CEF0CF05FEF0CF0D8900D366B
:1018DC000E360F3610360950055C0A5006580B5060
:1018EC0007580C500858D8A07EEF0CF080EF0CF085
:1018FC0089EF0CF00950055E0A50065A0B50075A36
:10190C000C50085A0D80D8900C320B320A32093226
:10191C00112E6CEF0CF00DC005F00EC006F00FC0D0
:10192C0007F010C008F01200C58000F0A1A6A1EFCE
:10193C000CF0A3EF0CF0ABEF0CF0C590A196FF0EE2
:10194C00066EFC0E056EEBEF0CF0C6AEB0EF0CF0B5
:10195C00B2EF0CF0BAEF0CF0C590C69EFF0E066EFF
:10196C00FB0E056EEBEF0CF0000E086E000E076E12
:10197C00D6EF0CF0074A082A08BECEEF0CF0E90EA1
:10198C00075C030E0858D8A0CEEF0CF0D0EF0CF08B
:10199C00D6EF0CF0FF0E066E9B0E056EEBEF0CF007
:1019AC00C5B0DBEF0CF0DDEF0CF0C0EF0CF0A1A636
:1019BC00E2EF0CF0E4EF0CF0E7EF0CF0A196A5EFE2
:1019CC000CF0000E066E000E056E12001CBEF1EF40
:1019DC000CF0F3EF0CF0F9EF0CF01BC020F01CC076
:1019EC0021F0FDEF0CF0000E216E000E206E000EAB
:1019FC001F6E000E1E6E0FEF0DF0000E086E200E07
:101A0C00076E17C009F018C00AF0B6EC09F01E4AB0
:101A1C001F2A20501E5C1F50800A1D6E2150800A08
:101A2C001D58D8A01CEF0DF01EEF0DF003EF0DF0BC
:101A3C0019C010F01AC011F017C012F018C013F032
:101A4C00DEEC0DF01200C58400F0A1A630EF0DF015
:101A5C0032EF0DF039EF0DF0A196FF0E066EFC0E75
:101A6C00056E60EF0DF0000E086E000E076E55EF60
:101A7C000DF0074A082A08BE4DEF0DF0E90E075C81
:101A8C00030E0858D8A04DEF0DF04FEF0DF055EFA9
:101A9C000DF0FF0E066EFE0E056E60EF0DF0C5B478
:101AAC005AEF0DF05CEF0DF03FEF0DF0000E066EEF
:101ABC00000E056E12003F0EC716000EC56E800E8E
:101ACC0012180BE11A0E131808E1060E1418151053
:101ADC00D8A473EF0DF075EF0DF078EF0DF0C75043
:101AEC0079EF0DF0C78E080EC66E000E056E090E4E
:101AFC00066E3D0E076E000E086E12C009F013C084
:101B0C000AF014C00BF015C00CF048EC0CF00504F6
:101B1C00C86EC68A12003FC043F040C044F0A5EF27
:101B2C000DF03DC02FF03EC030F0430E316E000E74
:101B3C00326E41C033F042C034F020EC09F043C0A7
:101B4C00F6FF44C0F7FFF86A0800F5500009D8A466
:101B5C00B2EF0DF0B4EF0DF097EF0DF0000E3E6EFE
:101B6C00000E3D6E1200220EF66E1E0EF76E000E6B
:101B7C00F86E00EECCF010EE0BF00900F5CFEEFF96
:101B8C00E550E150FAE102EE00F0FE0EEE6AE806D6
:101B9C00FDE100EE60F06C0EEE6AE806FDE15A6ABB
:101BAC00596A586A576A5B905B920001E2EF0AF03F
:101BBC00000E166E000E156EEFEF0DF014C007F050
:101BCC00086A12C009F013C00AF0B6EC09F0154A05
:101BDC00162A15501024D96E16501120DA6EDF50CB
:101BEC00146E1450D8A4FDEF0DF0FFEF0DF0E4EFE0
:101BFC000DF012000CBE0DEF0EF00C5006E10B04B4
:101C0C00D8B00BEF0EF00DEF0EF01BEF0EF00BC07B
:101C1C000DF00CC00EF00D1E0E1E0D4A0E2A0DC03E
:101C2C000BF00EC00CF01FEF0EF00BC00BF00CC045
:101C3C000CF01200080EB86E900EAB6E240EAC6E4B
:101C4C00220EAF6E000EB06E000E056E000E066E0C
:101C5C0026EC0FF0000E056E000E066E21EC0FF058
:101C6C00000E056E000E066E2BEC0FF0000E000140
:101C7C00AB6F1200C69A40EC0BF005C00BF006C01F
:101C8C000CF00CBE52EF0EF00C5008E10B04D8A077
:101C9C0052EF0EF054EF0EF058EF0EF009680A6890
:101CAC005DEF0EF0C68A000E0A6E000E096E120071
:101CBC009E9059C001F05AC002F0A6EC0EF0000143
:101CCC00D751D811D8B46DEF0EF06FEF0EF07BEF4B
:101CDC000EF002D87BEF0EF00500FA6ED751FD6EB8
:101CEC00D851FE6EFF6AFA5012001200000ECC6E34
:101CFC00FC0ECF6E180ECE6ECECF59F0CFCF5AF061
:101D0C009E909D80720E056E1E0E066E1CEC0FF0E2
:101D1C00270ECD6E1200000E896E000E8A6E010E1B
:101D2C008B6E92689368BA0E946E200E0F013A6F08
:101D3C003F0E396F2F0E386F000E616EF18E120050
:101D4C00CDA4ABEF0EF0ADEF0EF0B5EF0EF0CD90E5
:101D5C000250CF6E01C0CEFFCD80B9EF0EF0025015
:101D6C00CF6E01C0CEFF1200470E496E000E4A6EB8
:101D7C00000E3D6E000E3E6E45C03FF046C040F07A
:101D8C00490E416E000E426E91EC0DF01200F29E67
:101D9C008EC009F08FC00AF090C00BF091C00CF00F
:101DAC00F28E09C005F00AC006F00BC007F00CC09B
:101DBC0008F0120037EC0FF0F8EC0EF091EC0EF08E
:101DCC000AEC0FF07CEC0EF020EC0EF01200056E1D
:101DDC009EA8F3EF0EF0F5EF0EF0EEEF0EF005C04F
:101DEC00ADFF1200000EC76E080EC66E000EC56E5B
:101DFC00270EC86EC69A1200010E00018E27000E27
:101E0C008F23902391231200700ED36E040ED26E8A
:101E1C00000E9B6E12000001020304050607080960
:011E2C000AAB
:101E2E00066E0650EDEC0EF0120005C0D7F006C09F
:101E3E00D8F0120005C0DBF006C0DCF0120005C0C1
:101E4E00DDF006C0DEF0120005C0D9F006C0DAF0F3
:101E5E001200C596C69EA196120094869488120012
:061E6E00D09E12001200DC
:020000040020DA
:08000000FFFFFFFFFFFFFFFF00
:020000040030CA
:0E000000FF281F3CFFBF85FF0FC00FE00F4021
:00000001FF
